:020000040800F2
:10000000C0150020590200083B140008FD1200082A
:1000100039140008E9020008591500080000000022
:100020000000000000000000000000009D0100082A
:10003000EB02000800000000F10100086514000850
:1000400073020008730200087302000873020008BC
:1000500073020008730200087302000873020008AC
:10006000730200087302000873020008730200089C
:10007000730200087302000873020008730200088C
:10008000730200087302000873020008730200087C
:10009000730200087302000873020008730200086C
:1000A000730200087302000873020008730200085C
:1000B000730200087302000873020008730200084C
:1000C000730200087302000873020008730200083C
:1000D000730200087302000873020008730200082C
:1000E000730200087302000873020008730200081C
:1000F000730200087302000873020008730200080C
:100100000000000000000000000000007302000872
:1001100073020008730200087302000873020008EB
:1001200073020008730200087302000873020008DB
:1001300073020008730200080000000000000000C5
:100140007302000873020008730200080000000038
:10015000000000000000000000000000000000009F
:100160000000000000000000730200087302000895
:100170007302000800000000000000000000000002
:100180000000000073020008DFF80CD000F09AF8BD
:100190000048004779150008C01500202B4B19684E
:1001A0000868B0E8F04F80F30988BFF36F8F4FF015
:1001B000000080F3118870470000000006480068C6
:1001C000006880F3088862B661B6BFF34F8FBFF353
:1001D0006F8F00DF00BF00BF08ED00E0DFF80C000C
:1001E000016841F470010160704700BF88ED00E0D4
:1001F000EFF30980BFF36F8F144B1A681EF0100FD6
:1002000008BF20ED108A20E9F04F106008B44FF0CD
:10021000500080F31188BFF34F8FBFF36F8F01F051
:100220003BFD4FF0000080F3118808BC1968086896
:10023000B0E8F04F1EF0100F08BFB0EC108A80F34A
:100240000988BFF36F8F704700BF00BF1400002004
:10025000EFF30580704700000648804706480047D6
:10026000FEE7FEE7FEE7FEE7FEE7FEE7FEE7FEE766
:10027000FEE7FEE7F11400088901000840EA0103E7
:100280009B0703D009E008C9121F08C0042AFAD24C
:1002900003E011F8013B00F8013B521EF9D2704710
:1002A000D2B201E000F8012B491EFBD270470022B8
:1002B000F6E710B513460A4604461946FFF7F0FF65
:1002C000204610BD064C074D06E0E06840F00103F3
:1002D00094E8070098471034AC42F6D3FFF758FF74
:1002E0005020000870200008FEE770472DE9F84F05
:1002F000DFF864B100234FF0010C4FF0030A4FF018
:100300000F090BF1040EA0E00CFA03F6324072D094
:100310004C68022C01D0122C0ED1DC0800EB8408B2
:10032000D8F820405D07EF0E09FA07F5AC430D69D8
:10033000BD402543C8F8205007685D0091F804804F
:100340000AFA05F408F00308A74308FA05F848EA92
:100350000708C0F800804F68012F05D0022F03D096
:10036000112F01D0122F11D18768D1F80C80A7432B
:1003700008FA05F848EA0708C0F808804768B74354
:100380000E79C6F300169E403E434660C668A643FB
:100390008C68AC403443C4604C68E40054D52F4CA6
:1003A000A56945F00105A561A46923F0030504F0E2
:1003B000010400942A4C2E19B4689D072F0F09FAE6
:1003C00007F5AC43B0F1904F04D0264DA84203D1BD
:1003D000012512E0002510E0234DA84201D102259D
:1003E0000BE0224DA84201D1032506E0204DA84292
:1003F00002D1042501E027E00525BD402543B56075
:10040000DBF800405D464E689443F60300D5144384
:100410002C60DEF8004075464E689443B60300D564
:1004200014432C600C4D08352C684E689443F6023A
:1004300000D514432C60084D0C352C684E6894434D
:10044000B60200D514432C605B1C0A6832FA03F430
:100450007FF45AAFBDE8F88F00040140001002405D
:10046000000001400004004800080048000C00485B
:10047000001000480AB18161704781627047000036
:1004800001488068704700000400002090F8412077
:10049000202A24D190F84020012A20D0012280F87F
:1004A0004020242280F841200268136823F00103D1
:1004B00013600268136823F48053136002681368A2
:1004C0000B43136001680A6842F001020A602021B0
:1004D00080F84110002180F8401008467047022043
:1004E000704790F84120202A22D190F84020012A1C
:1004F0001ED0012280F84020242280F8412002688A
:10050000136823F0010313600268136823F4706317
:1005100043EA0121116001680A6842F001020A60A1
:10052000202180F84110002180F8401008467047D3
:100530000220704770B5040004D094F841000025F3
:1005400010B106E0012070BD84F84050204600F054
:100550004DF8242084F841002068016821F0010151
:1005600001606068216820F070600861206881681F
:1005700021F400418160E0680128A06807D040F4C0
:10058000044021688860E068022803D006E040F457
:100590000040F6E721684FF4006048602068416839
:1005A000114A114341602068C16821F40041C160D3
:1005B000D4E904010843A16940EA01202168C86028
:1005C000D4E907010843216808602068016841F008
:1005D000010101606564202084F84100256384F8EE
:1005E0004250002070BD00000080000210B586B0AF
:1005F000044614216846FFF75AFE124920688842D3
:100600001ED1114C606940F48020606160696946C8
:1006100000F480200590C02000901220019001205D
:10062000029003200390042004900848FFF75EFE28
:10063000E06940F40010E061E06900F4001005900A
:1006400006B010BD005400400010024000040048F5
:1006500002488168027811448160704704000020DC
:10066000074810B5016841F010010160032000F057
:1006700063F80F2000F006F800F024F8002010BD09
:100680000020024070B50D4D04464FF47A71287871
:10069000B1FBF0F00A490968B1FBF0F000F01AFE76
:1006A00048B9102C07D200222146501E00F024F831
:1006B00000206C6070BD012070BD000004000020AF
:1006C000100000200B4882B0816941F00101816176
:1006D000816901F001010091C16941F08051C1615E
:1006E000C069002200F0805000900F21901E02B0DF
:1006F00000F002B800100240F0B40E4B1B680C462C
:10070000C3F30223C3F10705042D00D90425191DE5
:10071000072901D2002300E0DB1E012606FA05F1BD
:10072000491E214099409E40761E16403143F0BC40
:1007300000F084BE0CED00E0064900F007020868F6
:100740004FF6FF03184040EA0220034A10430860B6
:10075000704700000CED00E00000FA0570B50400E1
:100760004FF0000604D094F87103002510B106E0A4
:10077000012070BD84F87053204600F043F8032038
:1007800084F8710301220CE0C6EBC60004EB800084
:1007900080F8292000F8286F761CC570C5600561B7
:1007A00045616068B042EFD8002010E0C0EBC001A6
:1007B00004EB810181F8CD5181F8CC0181F8CF5152
:1007C000C1F8D851C1F8DC51401CC1F8E051616852
:1007D0008142EBD82068A0F840202068A0F8405063
:1007E0002068A0F844502068A0F8505021684FF4C9
:1007F0003F40A1F8400084F8245084F87123002081
:1008000070BD000010B586B0044614216846FFF79D
:100810004EFD13492068884220D1124C606940F493
:10082000003060616069694600F4003005904FF463
:10083000C0500090022001900020029003200390FD
:100840000E2004904FF09040FFF750FDE06940F417
:100850000000E061E06900F40000059006B010BD02
:10086000005C0040001002402DE9F84F044600688B
:10087000804DC0036FD5E8690026C00008D4E86940
:1008800040F08050E861E869012600F08050009057
:1008900079480168C90512D40168804641F4807125
:1008A0000160FFF7EDFD074605E000BFFFF7E8FD3B
:1008B000C01B642835D8D8F80000C005F6D5286AD2
:1008C00010F4407053D0A18801F4407181424ED0A1
:1008D000286A4FF4803191FAA1F2B2FA82F29700BD
:1008E000664A4FF00108174420F44070C7F80084AE
:1008F00091FAA1F1B1FA81F102EB81010023C1F873
:1009000000342862C00732D0FFF7BAFD074641F233
:10091000883A4FF0020907E0FFF7B2FDC11B5145CD
:1009200002D90320BDE8F88F99FAA9F1B1FA81F153
:1009300041F040014846B8EB511F01D129680CE055
:1009400090FAA0F1B1FA81F141F04001B0EB511FF2
:1009500002D1296A01E015E0696A99FAA9F0B0FAB2
:1009600080F000F01F0008FA00F21142D4D0286A8B
:10097000616820F44070084328621EB1E86920F0E5
:100980008050E8612078C00705D0286BA16820F06E
:100990000300084328632078800705D5286BE168A9
:1009A00020F44030084328632078400705D5286BA1
:1009B000216920F44020084328632078800605D56B
:1009C000286BE16920F01000084328632068800349
:1009D00005D56868A16B20F4800008436860207822
:1009E000400605D5286B216A20F0200008432863C3
:1009F0002078000705D5286B616920F44010084372
:100A000028632078C00605D5286BA16920F4400032
:100A1000084328632088800505D56868E16A20F4CA
:100A20000000084368602078000605D5E86A616A1E
:100A300020F4F8700843E8622088C00505D5E86A0C
:100A4000A16A20F478500843E8622088C00405D5E4
:100A5000286B216B20F48070084328632088800471
:100A600005D5286B616B20F40070084328630020D3
:100A700058E70000001002400070004000004242B1
:100A80002DE9F0470F46050069D04A4E306800F066
:100A90000700B84209D2306820F0070038433060C0
:100AA000306800F00700B84259D12878424C8007DE
:100AB00005D56068A96820F0F000084360602878D8
:100AC000C0073DD06968012001290DD0022923D03B
:100AD0005FF0020393FAA3F2B2FA82F242F020022C
:100AE000520904D0226803E04FF40033F2E7626A4F
:100AF00093FAA3F3B3FA83F303F01F03984002427F
:100B00002DD0606820F0030008436060FFF7B8FC58
:100B1000804641F288390CE04FF00073DAE700BFFD
:100B2000FFF7AEFCA0EB0801494502D90320BDE860
:100B3000F0876068696800F00C00B0EB810FEFD1BE
:100B4000306800F00700B8420BD9306820F0070089
:100B500038433060306800F00700B84201D001200F
:100B6000E5E72878400705D56068E96820F4E0608B
:100B7000084360602878000706D56068296920F47A
:100B8000605040EAC100606000F01CF86168F0222B
:100B900092FAA2F201F0F001B2FA82F2D140074AD1
:100BA000515CC840064908600F20FFF76BFD00202C
:100BB000BDE7000000200240001002403420000881
:100BC00010000020144B10B55A68144802F00C01B4
:100BD00004291DD008291BD14FF4701494FAA4F4F1
:100BE00002F47011B4FA84F4E1400D4CDB6A615CEC
:100BF0000F2494FAA4F403F00F03B4FA84F4E3404E
:100C0000074C1034D203E35C03D5B0FBF3F0484348
:100C100010BD0448484310BD0010024000127A0085
:100C20001420000800093D002DE9F84F040071D0A0
:100C30002078FB4DC0074FF0010625D06868770487
:100C4000C0F38100012807D06868C0F38100022842
:100C50001BD16868C00318D597FAA7F0B0FA80F0E6
:100C600040F02000400901D0286800E0686A97FA47
:100C7000A7F1B1FA81F101F01F0106FA01F1084272
:100C800065D060680028D2D061E06068B0F5803F30
:100C90000BD010B1B0F5A02F17D0286820F4803009
:100CA0002860286820F4802002E0286840F4803022
:100CB0002860E86AA16820F00F000843E8626068D5
:100CC00020B3FFF7DDFB80460AE0286840F480206F
:100CD0002860EAE7FFF7D4FBA0EB0800642872D88D
:100CE00097FAA7F0B0FA80F040F02000400901D058
:100CF000286800E0686A97FAA7F1B1FA81F101F07B
:100D00001F0106FA01F10842E4D020E0FFF7B8FB2A
:100D1000804607E0C7E000BFFFF7B2FBA0EB08008A
:100D20006428DCD897FAA7F0B0FA80F040F02000F1
:100D3000400901D0286800E0686A97FAA7F1B1FA83
:100D400081F101F01F0106FA01F10842E4D1207897
:100D5000DFF8D08280074FF0000A4FF0020759D524
:100D600068684FF0F80B10F00C0F07D06868C0F3FC
:100D7000810002281BD16868C00318D497FAA7F035
:100D8000B0FA80F040F02000400901D0286800E06F
:100D9000686A97FAA7F1B1FA81F101F01F0106FA2A
:100DA00001F108422BD0206901287CD127E020697D
:100DB00088B396FAA6F0B0FA80F048F82060FFF702
:100DC0005FFB814606E055E1FFF75AFBA0EB090007
:100DD000022884D897FAA7F0B0FA80F040F02000FB
:100DE000400901D0286800E0686A97FAA7F1B1FAD3
:100DF00081F101F01F0106FA01F10842E4D02868F0
:100E00009BFAABF26169B2FA82F220F0F8009140ED
:100E10000843286025E0FFE796FAA6F1B1FA81F1D0
:100E200048F821A0FFF72CFB814605E0FFF728FBDF
:100E3000A0EB09000228CCD897FAA7F0B0FA80F00E
:100E400040F02000400901D0286800E0686A97FA65
:100E5000A7F1B1FA81F101F01F0106FA01F1084290
:100E6000E4D1207800076AD5A069A0B396FAA6F06D
:100E7000B0FA80F008EB8000C0F88064FFF700FB58
:100E8000814605E0FFF7FCFAA0EB09000228A0D894
:100E900097FAA7F0B0FA80F040F06000B6EB501F70
:100EA00002D128680CE077E197FAA7F0B0FA80F059
:100EB00040F06000B7EB501F01D1286A00E0686A7B
:100EC00097FAA7F1B1FA81F101F01F0106FA01F2D8
:100ED0001042D7D033E0FFE796FAA6F0B0FA80F0E0
:100EE00008EB8000C0F880A4FFF7CAFA814605E04D
:100EF000FFF7C6FAA0EB090002289CD897FAA7F0E2
:100F0000B0FA80F040F06000B6EB501F01D12868C5
:100F10000BE097FAA7F0B0FA80F040F06000B7EB72
:100F2000501F01D1286A00E0686A97FAA7F1B1FA68
:100F300081F101F01F0106FA01F21042D8D12078A8
:100F4000400774D5E8694FF00009C00009D4E8698A
:100F500040F08050E861E8694FF0010900F08050EE
:100F6000009031480168C90512D4016841F48071CC
:100F70000160FFF785FA834606E000BFFFF780FABD
:100F8000A0EB0B00642875D827480068C005F5D58C
:100F9000E06801280AD008B1052811D0286A20F09D
:100FA00001002862286A20F0040002E0286A40F06C
:100FB00001002862E068C8B3FFF762FA83460DE0DB
:100FC000286A40F004002862F0E700BFFFF758FAF3
:100FD000A0EB0B0141F2883081424BD897FAA7F081
:100FE000B0FA80F040F04000B6EB501F01D1286805
:100FF0000BE097FAA7F0B0FA80F040F04000B7EBB2
:10100000501F01D1286A00E0686A97FAA7F1B1FA87
:1010100081F101F01F0106FA01F21042D6D035E04D
:1010200000100240000042420070004000E034E046
:10103000FFF726FA834607E0FFF722FAA0EB0B0141
:1010400041F28830814215D897FAA7F0B0FA80F0C3
:1010500040F04000B6EB501F01D128680CE097FA31
:10106000A7F0B0FA80F040F04000B7EB501F02D17B
:10107000286A01E083E0686A97FAA7F1B1FA81F182
:1010800001F01F0106FA01F21042D5D1B9F1000FAB
:1010900003D0E86920F08050E861E06980B36968B6
:1010A000C1F38101022977D04FF080714F000228EF
:1010B00009D091FAA1F0B0FA80F048F820A0FFF72B
:1010C000DFF904465EE050468A4691FAA1F1B1FA92
:1010D00081F1C14648F82100FFF7D2F9804605E0CA
:1010E000FFF7CEF9A0EB0800022848D897FAA7F03E
:1010F000B0FA80F040F02000400902D0286801E0FA
:1011000056E0686A97FAA7F1B1FA81F101F01F0180
:1011100006FA01F10842E3D1D4E9081008436968EE
:1011200021F47411084368609AFAAAF0B0FA80F0CA
:1011300049F82060FFF7A4F9044604E0FFF7A0F99E
:10114000001B02281BD897FAA7F0B0FA80F040F0F5
:101150002000400901D0286800E0686A97FAA7F1EA
:10116000B1FA81F101F01F0106FA01F10842E5D060
:101170001EE000BFFFF784F9001B022802D90320FC
:10118000BDE8F88F97FAA7F0B0FA80F040F02000A1
:10119000400902D0286801E00CE0686A97FAA7F1DC
:1011A000B1FA81F101F01F0106FA01F10842E1D123
:1011B0000020E5E70120E3E72DE9F041040005D038
:1011C0000025A56294F85D0018B107E00120BDE894
:1011D000F08184F85C50204600F04AF8022384F83D
:1011E0005D302068016821F040010160E0684FF443
:1011F000E066B04201D9002101E04FF48051B0F522
:10120000706F02D0B04200D0A562276B012227B9CF
:10121000B04201D9236300E02263D4E901031843FB
:10122000D4E9043633431843238B03F40073184383
:10123000E3691843236A1843A36A184323681860B4
:10124000636B606AA66918430427E36807EA1646D9
:10125000334318430843216848602068C16921F47A
:101260000061C161256684F85D200020AFE70000C1
:1012700010B586B0044614216846FFF718F81349E4
:10128000206888421FD11248816941F480518161F0
:10129000816901F480510591416941F40031416156
:1012A0004069694600F400300590E020009002207B
:1012B00001900020029003200390052004904FF03D
:1012C0009040FFF713F806B010BD00000030014059
:1012D0000010024010B5401EB0F1807F01D3012004
:1012E00010BD4FF0E02460610F21601700F0A6F8F8
:1012F0000020A06107202061002010BDFEE7000053
:1013000070B586B014216846FEF7D1FF26484169C2
:1013100041F400114161416901F4001105914169F5
:1013200041F400214161416901F4002105914169C5
:1013300041F480014161416901F4800105914169F5
:1013400041F400314161416901F400310591416985
:1013500041F4802141614069144E00F480204FF631
:1013600008750590002229463046FFF783F837209C
:1013700000900F480024CDE9010469463046FEF78D
:10138000B5FF00950125CDE9015469463046039427
:10139000FEF7ACFFCDE9005469464FF0904002944F
:1013A000FEF7A4FF06B070BD001002400010004818
:1013B000000012100E4810B50C4901600D49416043
:1013C00000210122C0E90212016141618161C16114
:1013D0000162FFF7AFF800210548FFF757F8BDE8B5
:1013E000104000210248FFF77CB800000054004084
:1013F000740000200E0900200E480D494FF4407281
:1014000001604FF4827141600021C0E902124FF483
:1014100000720161C0E905120822C0E90721072313
:101420004162C0E90A13C0E90C12FFF7C5BE000013
:1014300000300140C0000020FEE770470907090E98
:10144000002806DA00F00F0000F1E02080F8141DFB
:10145000704700F1E02080F800147047012000F090
:10146000BFF8FBE710B5FFF7F3F800F0F5FC012833
:1014700003D0BDE8104000F0ADBC10BD30B59FB04A
:1014800028216846FEF713FF142119A8FEF70FFF65
:101490003C210AA8FEF70BFF032000904FF4A02088
:1014A0000024CDE9010401200490102005900225BC
:1014B0000003CDE90750000109906846FFF7B4FB2F
:1014C0000F20CDE919056802CDE91B40012119A8BB
:1014D0001D94FFF7D5FA05480A904004189011941E
:1014E0000AA8FFF7C1F91FB030BD000020000200BC
:1014F0001448016841F4700101601348016841F02B
:10150000010101604168114A114041600168104ABF
:1015100011400160016821F480210160416821F4DB
:10152000FE014160C16A21F00F01C162016B094AED
:1015300011400163002181600249C00380390860C5
:101540007047000088ED00E0001002400CC07FF8FA
:10155000FFFFF6FECCFC00FFFEE702E008C8121F0A
:1015600008C1002AFAD170477047002001E001C18C
:10157000121F002AFBD1704786B0FFF771F8FFF702
:101580007DFFFFF7BDFEFFF715FFFFF735FF0E48A4
:101590000C49016008214160022181600161002144
:1015A00081610162FFF7DAF8142208496846FEF704
:1015B00065FE0021684600F01FF80549086000F04C
:1015C00016F8FEE7005C004024010020002000081F
:1015D0000000002001460020842900D0C81C70476C
:1015E00010B500B9012000F0F5FA002010BD10B5CB
:1015F00000F016FB002010BD3EB504460D46B0F9C4
:101600000800FFF7E7FF02A9CDE90001208A2B4679
:1016100082B2D4E9001000F0F3FB012801D00020D1
:101620003EBD02983EBD00002DE9F041184C0F462A
:101630000546E6682068001D00F016FA38B92068F3
:1016400090F82C1001208840216981432161681C99
:1016500007D137B12168BDE8F0410E48091D00F0FF
:101660003BBA20683544B5424560216805D2A06B7D
:10167000BDE8F041091D00F017BA606B091D00F0CC
:1016800013FAA06A854200D2A562BDE8F08100008D
:1016900014000020A80500202DE9F041054600F0C7
:1016A00027FA2E4CA068401CA06020682C4F10B177
:1016B000606940B32DE02560A068012829D100268B
:1016C00006EB860007EB800000F0E0F9761C072EA1
:1016D000F6D323488C3000F0D9F92148A03000F02F
:1016E000D5F91F48B43000F0D1F91D48C83000F0DA
:1016F000CDF91B48DC3000F0C9F919488C30606323
:101700001430A06305E02068E96AC06A884200D806
:101710002560606A401C6062E96A01202269884095
:101720001043206101EB810007EB8000291D00F0D0
:10173000D3F900F0FDF9606900280CD02068E96A4F
:10174000C06A884207D207494FF080500860BFF353
:101750004F8FBFF36F8FBDE8F081000014000020B1
:10176000CC04002004ED00E070B5114E114C17E0E0
:1017700000F08AFA3068B8B100F0E0FB00F0B8F988
:10178000F068C568281D00F06FF9A068401EA060D1
:101790006068401E606000F0CBF9284600F00CF84D
:1017A00060680028E4D170BD00F0C8FBF8E70000D5
:1017B000940500201400002010B50446006B00F0D2
:1017C000CBF92046BDE8104000F0C6B910484FF4F0
:1017D0004061420706D0C01D0D4920F00700411AA4
:1017E000C1F540610B4A00230144C2E900030839F6
:1017F000103A21F0070111604B600B600B1AC0E931
:10180000001393604FF000405360D06070470000B9
:10181000BC05002060000020074C4FF08056074DAB
:10182000FFF7A2FF20680128FAD92E60BFF34F8F7F
:10183000BFF36F8FF4E70000CC04002004ED00E05C
:101840002DE9F0479A46DDE9098481466FF00303EC
:10185000206B03EB82021044089D20F007067007FE
:1018600007D0502080F31188BFF34F8FBFF36F8FE5
:10187000FEE723180A5C83F834200A5C12B1401C8E
:101880001028F6D3002784F84370072D00D30625CF
:10189000E562C4E91157201D00F003F904F11800B6
:1018A00000F0FFF82461C5F107006462A061E764FD
:1018B00084F8507052464946304600F0BFF8206028
:1018C000B8F1000F01D0C8F80040BDE8F087000073
:1018D00030B5114900E011460A688242FBD34B68DB
:1018E0005C18844203D14068184448600846436845
:1018F0001C18944209D1084C103C2468A24209D01B
:1019000052681A4442600A6812680260814200D03C
:10191000086030BD0460F9E7600000200648416BB4
:10192000096829B1416BC968C96849688162704713
:101930004FF0FF31FAE7000014000020084840682B
:10194000401C4FF0500080F3118804D0BFF34F8F3C
:10195000BFF36F8FFEE7BFF34F8FBFF36F8FFEE7CD
:10196000680000202DE9F0410546002700F08CF9C1
:10197000314E306808B9FFF729FFF06805424BD1B6
:10198000C5B3083568070ED005F00700C0F10800A0
:101990000544680707D0502080F31188BFF34F8FAC
:1019A000BFF36F8FFEE72DB37068854234D82248AD
:1019B000103001460C6801E020460C466168A942DF
:1019C00002D221680029F7D131688C4224D00768FF
:1019D0002168016060680837411B10290FD9601920
:1019E000420708D0502080F31188BFF34F8FBFF318
:1019F0006F8FFEE710E041606560FFF769FF616887
:101A00007068401A7060B268904200D2B060F068AE
:101A100001430020C4E9000100F090FA780707D0E4
:101A2000502080F31188BFF34F8FBFF36F8FFEE715
:101A30003846BDE8F08100005000002010B5031FBB
:101A40004FF080741C601B1F21F001011960191FE9
:101A5000044B0B6014390A60091F6FF0020244380E
:101A60000A6010BD3D190008D0E9013201699A6091
:101A7000D0E901235A604A68824201D182684A60F3
:101A8000002202610868401E0860704700F10801EA
:101A90004FF0FF32C0E90112C16001610021016015
:101AA000704700210161704730B50B685A1C02D0A5
:101AB00000F1080202E0026904E022465468256849
:101AC0009D42FAD953684B6099608A605160086101
:101AD0000168491C016030BD42684A6093688B60B0
:101AE00093685960916008610168491C0160704702
:101AF000502080F31188BFF34F8FBFF36F8F0A49D7
:101B00004868401C486001280CD10848006810F063
:101B1000FF0F07D0502080F31188BFF34F8FBFF322
:101B20006F8FFEE7704700006800002004ED00E0C2
:101B30000849486828B1401E486001D180F31188E7
:101B40007047502080F31188BFF34F8FBFF36F8F22
:101B5000FEE700006800002070B5002827D0144D73
:101B6000A0F108046168E868014207D1502080F3C1
:101B70001188BFF34F8FBFF36F8FFEE722683AB132
:101B8000502080F31188BFF34F8FBFF36F8FFEE7B4
:101B90008143616000F078F86068696808446860B3
:101BA0002046FFF795FEBDE8704000F0C7B970BD54
:101BB0005000002006484FF47A710068B0FBF1F144
:101BC0004FF0E020491E416107210161704700008C
:101BD0001000002010B5020014D00F48006B38B17F
:101BE000502080F31188BFF34F8FBFF36F8FFEE754
:101BF00000F04AF800211046FFF716FD00F09EF9AC
:101C0000002807D105494FF080500860BFF34F8F7F
:101C1000BFF36F8F10BD00001400002004ED00E042
:101C20001CB515480024CDE900402346802213A1AD
:101C3000144800F0E5F8012809D0401C1AD15020C2
:101C400080F31188BFF34F8FBFF36F8FFEE75020F3
:101C500080F31188BFF34F8FBFF36F8F06484FF0AB
:101C6000FF312C38816201214161C460BDE81C4014
:101C700000F040B81CBD00004000002049444C4525
:101C800000000000191800080248016B491C01639C
:101C900070470000140000201448016B11B10121AD
:101CA000C16170470021C1610169B1FA81F1C1F1DF
:101CB0001F0101EB81020E4951F822306BB101EB9B
:101CC000820101F108034A6852684A609A4201D1D0
:101CD00052684A60D16801607047502080F31188D3
:101CE000BFF34F8FBFF36F8FFEE70000140000209B
:101CF000CC0400201CB532480168324A914207D119
:101D0000502080F31188BFF34F8FBFF36F8FFEE732
:101D100000682C49491E884207D1502080F3118861
:101D2000BFF34F8FBFF36F8FFEE72749087801900D
:101D3000FF20087008788DF800009DF800009DF8DD
:101D4000002000F0F000904207D0502080F311886E
:101D5000BFF34F8FBFF36F8FFEE79DF800001B4A64
:101D600000F0500010700720906005E09DF80030F2
:101D70005B008DF80030401E9DF800301B06F5D446
:101D8000000200F4E0609060019808700C48203078
:101D9000016841F470010160016841F07041016027
:101DA000FFF708FF00205060FEF718FA08480168A6
:101DB00041F040410160FEF701FA00201CBD000027
:101DC00000ED00E071C20F4100E400E06800002077
:101DD00034EF00E010B5502080F31188BFF34F8F2F
:101DE000BFF36F8F00F046F818B104494FF08050F0
:101DF0000860002080F3118810BD000004ED00E0B1
:101E00002DE9FF5F8346DDE90E87994616468A462F
:101E10009000FFF7A7FD05001AD05420FFF7A2FDA0
:101E2000040012D025630021CDE90241CDE90087ED
:101E30004B46324651465846FFF702FD2046FFF713
:101E40002BFC012004B0BDE8F09F2846FFF784FE7C
:101E50004FF0FF30F6E700000548416919B1006B0B
:101E600018B1002070470120704702207047000021
:101E7000140000202DE9F0412E4C0027206B40B1CA
:101E8000A069401CA061E06900B101273846BDE8A7
:101E9000F081E668761CE66013D1606B006838B1AB
:101EA000502080F31188BFF34F8FBFF36F8FFEE791
:101EB000606BA16B6163A063206A401C2062FFF726
:101EC0002DFDA06ADFF87080864209D3606B006840
:101ED00080B1606BC068C568686886420DD2A06238
:101EE0002068C06A00EB800158F821000128CAD997
:101EF0000127C8E74FF0FF30F1E7281DFFF7B4FDD9
:101F0000A86A18B105F11800FFF7AEFDE86A0121D3
:101F1000226981401143216100EB800108EB8100BF
:101F2000291DFFF7D9FDE86A2168C96A8842CDD327
:101F30000127CBE714000020CC0400202DE9F04756
:101F40002C4D00242746286B38B1FFF7D1FD286BB4
:101F5000401E2863286B40B146E0502080F3118872
:101F6000BFF34F8FBFF36F8FFEE7A968224E0120AA
:101F7000D1B3A6F1B40980463068E8B1F068C4680E
:101F800004F11800FFF770FD201DFFF76DFDE06AFA
:101F90002A6908FA00F11143296100EB800109EB7D
:101FA0008100211DFFF798FDE06A2968C96A88420F
:101FB000E2D3C5F81C80DFE70CB1FFF7AFFCAC69DA
:101FC00044B14646FFF756FF00B1EE61641EF9D1F9
:101FD0000020A861E86938B108490127380708607E
:101FE000BFF34F8FBFF36F8FFFF7A2FD3846BDE8F9
:101FF000F0870000140000208005002004ED00E0C0
:10200000442000085D1400080000000000000000EB
:102010008000000002030405060708090A0B0C0DE6
:102020000E0F10100102030405060708090A0B0C25
:102030000D0E0F100000000000000000010203045C
:102040000607080964656661756C745461736B00FA
:102050007020000800000020740000005A150008DD
:10206000E4200008740000204C1500006A150008E8
:10207000000000000100000010000000000000004F
:1020800000127A00000000000000000000000000C4
:102090000000000000000000000000000000000040
:1020A0000000000000000000000000000000000030
:1020B0000000000000000000000000000000000020
:1020C0000000000000000000000000000000000010
:1020D000000000000000000000000000AAAAAAAA58
:0420E00000000000FC
:040000050800018965
:00000001FF
