:020000040800F2
:10000000D84200205D020008AB100008A7100008CD
:10001000A9100008A10300082B140008000000002C
:100020000000000000000000000000009D0100082A
:10003000A303000800000000F9010008991200085D
:1000400077020008770200087702000877020008AC
:10005000770200087702000877020008770200089C
:10006000770200087702000877020008770200088C
:10007000770200087702000877020008770200087C
:10008000770200087702000877020008770200086C
:10009000770200087702000877020008770200085C
:1000A000770200082513000877020008770200088D
:1000B000770200087702000877020008770200083C
:1000C000770200087702000877020008770200082C
:1000D000770200087702000877020008770200081C
:1000E000770200087702000877020008770200080C
:1000F00077020008770200087702000877020008FC
:10010000000000000000000000000000770200086E
:1001100077020008770200087702000877020008DB
:1001200077020008770200087702000877020008CB
:1001300077020008770200080000000000000000BD
:10014000770200087702000877020008000000002C
:10015000000000000000000000000000000000009F
:10016000000000000000000077020008770200088D
:1001700077020008000000000000000000000000FE
:100180000000000077020008DFF80CD000F0F6F85D
:1001900000480047A5150008D84200202C4B1968DC
:1001A0000868B0E8F04F80F30988BFF36F8F4FF015
:1001B000000080F3118870470000000008480068C4
:1001C000006880F308884FF0000080F3148862B65E
:1001D00061B6BFF34F8FBFF36F8F00DF00BF00BF6B
:1001E00008ED00E0DFF80C00016841F470010160E7
:1001F000704700BF88ED00E0EFF30980BFF36F8F19
:10020000134B1A681EF0100F08BF20ED108A20E96A
:10021000F04F106009B44FF0500080F31188BFF325
:100220004F8FBFF36F8F02F0DFFF4FF0000080F3BE
:10023000118809BC19680868B0E8F04F1EF0100F6B
:1002400008BFB0EC108A80F30988BFF36F8F704746
:1002500094000020EFF305807047000006488047B7
:1002600006480047FEE7FEE7FEE7FEE7FEE7FEE79B
:10027000FEE7FEE7FEE7FEE7091300088901000834
:100280002DE9F05F0546002092469B4688460646CB
:10029000814640241BE0284641464746224600F05E
:1002A00020F853465A46C01A914110D311461846B9
:1002B000224600F053F82D1A67EB01084F462246FC
:1002C0000120002100F04AF817EB00094E41201EE2
:1002D000A4F10104DFDC484631462A464346BDE826
:1002E000F09F202A04DB203A21FA02F00021704717
:1002F00021FA02F3D040C2F120029140084319468E
:10030000704740EA01039B0703D009E008C9121FA8
:1003100008C0042AFAD203E011F8013B00F8013BBF
:10032000521EF9D27047D2B201E000F8012B491EEB
:10033000FBD270470022F6E710B513460A46044682
:100340001946FFF7F0FF204610BD034611F8012BB8
:1003500000F8012B002AF9D118467047202A04DB47
:10036000203A00FA02F1002070479140C2F12003C8
:1003700020FA03F31943904070470000064C074DE4
:1003800006E0E06840F0010394E807009847103465
:10039000AC42F6D3FFF7FCFEB0410008D0410008A4
:1003A000FEE770472DE9F84FDFF864B100234FF006
:1003B000010C4FF0030A4FF00F090BF1040EA0E0FF
:1003C0000CFA03F6324072D04C68022C01D0122C89
:1003D0000ED1DC0800EB8408D8F820405D07EF0E52
:1003E00009FA07F5AC430D69BD402543C8F8205014
:1003F00007685D0091F804800AFA05F408F0030824
:10040000A74308FA05F848EA0708C0F800804F68D3
:10041000012F05D0022F03D0112F01D0122F11D19F
:100420008768D1F80C80A74308FA05F848EA07085E
:10043000C0F808804768B7430E79C6F300169E409F
:100440003E434660C668A6438C68AC403443C460F3
:100450004C68E40054D52F4CA56945F00105A56111
:10046000A46923F0030504F0010400942A4C2E191A
:10047000B4689D072F0F09FA07F5AC43B0F1904F10
:1004800004D0264DA84203D1012512E0002510E03A
:10049000234DA84201D102250BE0224DA84201D1F3
:1004A000032506E0204DA84202D1042501E027E003
:1004B0000525BD402543B560DBF800405D464E682C
:1004C0009443F60300D514432C60DEF800407546D3
:1004D0004E689443B60300D514432C600C4D083588
:1004E0002C684E689443F60200D514432C60084DE6
:1004F0000C352C684E689443B60200D514432C602A
:100500005B1C0A6832FA03F47FF45AAFBDE8F88F37
:1005100000040140001002400000014000040048B7
:1005200000080048000C00480010004842690A42D8
:1005300000D00904816170470AB18161704781620E
:100540007047000001488068704700008400002068
:10055000024881680278114481607047840000205D
:10056000074810B5016841F010010160032000F058
:100570008BF8002000F006F800F03EF8002010BDD7
:100580000020024000B5014687B00022192000F08B
:100590005BF8192000F04AF81348816941F40061C2
:1005A0008161806905A900F400600690684600F04A
:1005B00021F900F03FF90D490D4AB0FBF1F10D486A
:1005C000491E0260416040F2E7320021C0E9032188
:1005D000816000F064FC10B1012007B000BD054847
:1005E00000F07AFCF9E700000010024040420F00E2
:1005F000002C0140C40500200B4882B0816941F005
:1006000001018161816901F001010091C16941F03D
:100610008051C161C069002200F0805000900F211C
:10062000901E02B000F010B800100240002809DB54
:1006300000F01F02012191404009800000F1E020FC
:10064000C0F8001170470000F0B40E4B1B680C4658
:10065000C3F30223C3F10705042D00D90425191D96
:10066000072901D2002300E0DB1E012606FA05F16E
:10067000491E214099409E40761E16403143F0BCF1
:1006800000F061BF0CED00E0064900F007020868C9
:100690004FF6FF03184040EA0220034A1043086067
:1006A000704700000CED00E00000FA052DE9F0476E
:1006B0000F46050069D04A4E306800F00700B84286
:1006C00009D2306820F0070038433060306800F00D
:1006D0000700B84259D12878424C800705D5606898
:1006E000A96820F0F000084360602878C0073DD07A
:1006F0006968012001290DD0022923D05FF002038F
:1007000093FAA3F2B2FA82F242F02002520904D024
:10071000226803E04FF40033F2E7626A93FAA3F32E
:10072000B3FA83F303F01F03984002422DD06068B0
:1007300020F0030008436060FFF704FF804641F2A9
:1007400088390CE04FF00073DAE700BFFFF7FAFEDC
:10075000A0EB0801494502D90320BDE8F087606895
:10076000696800F00C00B0EB810FEFD1306800F049
:100770000700B8420BD9306820F0070038433060DA
:10078000306800F00700B84201D00120E5E7287882
:10079000400705D56068E96820F4E06008436060C0
:1007A0002878000706D56068296920F4605040EA7F
:1007B000C100606000F056F86168F02292FAA2F27F
:1007C00001F0F001B2FA82F2D140074A515CC84010
:1007D0000649086006480068FFF7D4FE0020BCE721
:1007E00000200240001002407C41000890000020E0
:1007F000880000200F2202600C4A536803F00303B4
:100800004360536803F0F0038360536803F4E063CC
:10081000C36052684FF4E06303EAD2020261044805
:10082000006800F0070008607047000000100240F8
:100830000020024008480949006849684FF46052A6
:1008400092FAA2F201F46051B2FA82F2D140044A63
:10085000515CC8407047000090000020001002402A
:100860008C410008164A10B55168164801F00C0377
:10087000042B20D0082B1ED14FF4701494FAA4F44A
:1008800001F47013B4FA84F4E3400F4CD26AE45CD0
:100890000F2393FAA3F302F00F02B3FA83F3DA40C3
:1008A000094B1033C9039A5C06D500231946FFF79C
:1008B000E7FCA0FB040110BD0448A4FB000110BD2F
:1008C0000010024000127A005C41000800093D005F
:1008D0002DE9F84F050071D02878FC4EC0074FF085
:1008E000010425D070686704C0F38100012807D097
:1008F0007068C0F3810002281BD17068C00318D54E
:1009000097FAA7F0B0FA80F040F02000400901D03B
:10091000306800E0706A97FAA7F1B1FA81F101F04E
:100920001F0104FA01F1084265D068680028D2D09E
:1009300061E06868B0F5803F0BD010B1B0F5A02F32
:1009400017D0306820F480303060306820F4802088
:1009500002E0306840F480303060F06AA96820F02E
:100960000F000843F062686820B3FFF7EBFD804694
:100970000AE0306840F480203060EAE7FFF7E2FDEB
:10098000A0EB0800642871D897FAA7F0B0FA80F0BD
:1009900040F02000400901D0306800E0706A97FA0A
:1009A000A7F1B1FA81F101F01F0104FA01F1084247
:1009B000E4D020E0FFF7C6FD804607E0C2E000BFBC
:1009C000FFF7C0FDA0EB08006428DCD897FAA7F079
:1009D000B0FA80F040F02000400901D0306800E01B
:1009E000706A97FAA7F1B1FA81F101F01F0104FAD8
:1009F00001F10842E4D12878DFF8D48280074FF073
:100A0000000A4FF0020730D570684FF0F80B10F075
:100A10000C0F07D07068C0F38100022827D17068DE
:100A2000C00324D497FAA7F0B0FA80F040F0200079
:100A3000400901D0306800E0706A97FAA7F1B1FA76
:100A400081F101F01F0104FA01F1084202D0286986
:100A5000012877D130689BFAABF220F0F801686981
:100A6000B2FA82F29040014331605AE064E12869B1
:100A700088B394FAA4F0B0FA80F048F82040FFF769
:100A800061FD814606E000BFFFF75CFDA0EB0900B9
:100A900002289AD897FAA7F0B0FA80F040F0200028
:100AA000400901D0306800E0706A97FAA7F1B1FA06
:100AB00081F101F01F0104FA01F10842E4D030682D
:100AC0009BFAABF26969B2FA82F220F0F800914029
:100AD0000843306025E0FFE794FAA4F0B0FA80F014
:100AE00048F820A0FFF72EFD814605E0FFF72AFD1C
:100AF000A0EB09000228CCD897FAA7F0B0FA80F052
:100B000040F02000400901D0306800E0706A97FA98
:100B1000A7F1B1FA81F101F01F0104FA01F10842D5
:100B2000E4D1287800076CD5A869A8B394FAA4F09A
:100B3000B0FA80F008EB8000C0F88044FFF702FDB7
:100B4000814607E0A4E100BFFFF7FCFCA0EB090031
:100B500002289ED897FAA7F0B0FA80F040F0600023
:100B6000B4EB501F01D130680BE097FAA7F0B0FA50
:100B700080F040F06000B7EB501F01D1306A00E018
:100B8000706A97FAA7F1B1FA81F101F01F0104FA36
:100B900001F21042D8D034E0FFE794FAA4F1B1FAA0
:100BA00081F108EB8101C1F880A4FFF7CBFC8146FD
:100BB00006E000BFFFF7C6FCA0EB090002289AD8A8
:100BC00097FAA7F0B0FA80F040F06000B4EB501F45
:100BD00001D130680BE097FAA7F0B0FA80F040F04E
:100BE0006000B7EB501F01D1306A00E0706A97FADD
:100BF000A7F1B1FA81F101F01F0104FA01F21042EC
:100C0000D8D12878400768D5F0694FF00009C000B6
:100C100009D4F06940F08050F061F0694FF00109AB
:100C200000F0805000902B480168C90512D401687B
:100C300041F480710160FFF785FC834606E000BF48
:100C4000FFF780FCA0EB0B00642875D821480068F2
:100C5000C005F5D5E86801280AD008B1052811D0EB
:100C6000306A20F001003062306A20F0040002E0B7
:100C7000306A40F001003062E86868B3FFF762FC58
:100C800083460DE0306A40F004003062F0E700BFB8
:100C9000FFF758FCA0EB0B0141F2883081424BD8A2
:100CA00097FAA7F0B0FA80F040F04000B4EB501F84
:100CB00001D1306813E097FAA7F0B0FA80F040F065
:100CC0004000B7EB501F09D1306A08E00010024025
:100CD00000004242007000400CE040E0706A97FA69
:100CE000A7F1B1FA81F101F01F0104FA01F21042FB
:100CF000CED02DE0FFF726FC834607E0FFF722FC6D
:100D0000A0EB0B0141F28830814215D897FAA7F089
:100D1000B0FA80F040F04000B4EB501F01D13068D1
:100D20000CE097FAA7F0B0FA80F040F04000B7EB83
:100D3000501F02D1306A01E083E0706A97FAA7F190
:100D4000B1FA81F101F01F0104FA01F21042D5D18C
:100D5000B9F1000F03D0F06920F08050F061E8692C
:100D600080B37168C1F38101022977D04FF080719F
:100D70004F000228504609D091FAA1F1B1FA81F151
:100D800048F82100FFF7DEFB05465DE0894691FA51
:100D9000A1F1B1FA81F1C24648F82100FFF7D2FB78
:100DA000804605E0FFF7CEFBA0EB0800022848D8FC
:100DB00097FAA7F0B0FA80F040F02000400902D086
:100DC000306801E066E0706A97FAA7F1B1FA81F144
:100DD00001F01F0104FA01F10842E3D1D5E908103E
:100DE0000843716821F474110843706099FAA9F0FE
:100DF000B0FA80F04AF82040FFF7A4FB054604E073
:100E0000FFF7A0FB401B02281BD897FAA7F0B0FA07
:100E100080F040F02000400901D0306800E0706AA6
:100E200097FAA7F1B1FA81F101F01F0104FA01F17B
:100E30000842E5D02EE000BFFFF784FB401B0228EC
:100E400002D90320BDE8F88F97FAA7F0B0FA80F036
:100E500040F02000400902D0306801E00BE0706AE9
:100E600097FAA7F1B1FA81F101F01F0104FA01F13B
:100E70000842E1D10EE00128E4D070682A6A00F44B
:100E80008031914204D1696A00F47010884201D027
:100E90000120D7E70020D5E770477047704710B5AD
:100EA000040003D094F83D0010B107E0012010BD0C
:100EB000002084F83C00204600F00CF8022084F862
:100EC0003D00211D206800F033FA012084F83D0028
:100ED000002010BD704700000168CA6842F001029E
:100EE000CA6001688868064A1040062806D0B0F536
:100EF000803F03D0086840F0010008600020704780
:100F000007000100704770B50446006801694FF0A2
:100F10000005C943890715D4C168C943890711D49D
:100F2000E91E016101202077206880698007204642
:100F300002D0FFF7E7FF04E000F0A7F8204600F03A
:100F4000A5F8257720680169C943490717D4C16806
:100F5000C943490713D46FF00401016102202077CF
:100F60002068806910F4407F204602D0FFF7CAFF56
:100F700004E000F08AF8204600F088F82577206821
:100F80000169C943090716D4C168C943090712D4C6
:100F90006FF008010161042020772068C069800794
:100FA000204602D0FFF7AEFF04E000F06EF82046C6
:100FB00000F06CF8257720680169C943C90617D489
:100FC000C168C943C90613D46FF01001016108203C
:100FD00020772068C06910F4407F204602D0FFF7D8
:100FE00091FF04E000F051F8204600F04FF825771B
:100FF00020680169C943C90708D1C168C943C90745
:1010000004D1891E0161204600F042F82068016980
:10101000C943090609D4C168C943090605D46FF05C
:10102000800101612046FFF738FF20680169C9434C
:10103000C90509D4C168C943090605D46FF4807194
:1010400001612046FFF728FF20680169C94349066E
:1010500009D4C168C943490605D46FF04001016154
:10106000204600F01FF820680169C94389060BD4A7
:10107000C168C943890607D46FF020010161204689
:10108000BDE87040FFF70ABF70BD704770470000B1
:1010900000680349884201D1FFF75ABA704700003F
:1010A000002C01407047FEE7FEE770472DE9F0474E
:1010B000154F0446DDF8209038781D4616468846C0
:1010C00008B900F0B3F97869A04219D9EFF311809B
:1010D000202181F311880C4A04EB440102EBC10189
:1010E00034B10022C1F860800A67C1E91965CA6697
:1010F000C0B280F31188C1F874900020BDE8F08779
:101100004FF0FF30FAE70000082500202DE9F047F6
:10111000154F0446DDF8209038781D46164688465F
:1011200008B900F083F93869A04219D9EFF31180AA
:10113000202181F311880C4A04EB440102EBC10128
:1011400034B1C1F81880C1E9076500228A624A6299
:10115000C0B280F31188C1F82C900020BDE8F08760
:101160004FF0FF30FAE700000825002010B5EFF33C
:101170001184202383F3118800F004F8E1B281F395
:10118000118810BD2DE9F0471B4D074616462878FB
:101190000C4608B900F04AF907EB470005EBC00719
:1011A000A046D7E91B95002460374D4511D9B86892
:1011B000441BB44200D33446786822464119404665
:1011C000FFF79FF8B868361B2544A044A84200D119
:1011D0000025A9EB0500B04200D206463EB1786872
:1011E000324641194046FFF78CF83444354404B187
:1011F0003D612046BDE8F087082500202DE9F0413B
:1012000007460B4815460E46007808B900F00EF95F
:10121000EFF31184202080F311882A4631463846A6
:1012200000F008F8E1B281F31188BDE8F081000018
:101230000825002070B50E46144900EB400001EB74
:10124000C0051446E86A183520B101280FD00228DD
:1012500005D113E0284600F01DF9A04201D2002478
:1012600011E022463146284600F04CF90BE02846B2
:1012700000F010F9A042F4D20446F2E731462846C5
:1012800000F013F90446204670BD00000825002038
:10129000012000F0D7F9FBE710B5502080F311884A
:1012A000BFF34F8FBFF36F8F02F028FD18B10449D1
:1012B0004FF080500860002080F3118810BD0000BE
:1012C00004ED00E010B590B028216846FFF732F831
:1012D00014210AA8FFF72EF80220009001200490A4
:1012E00010200024059007946846FFF7F1FA0F20BC
:1012F000CDE90A040C940D9400210AA80E94FFF77E
:10130000D5F910B010BD00000548016841F4700126
:10131000016003494FF000608039086070470000A9
:1013200088ED00E00148FFF7EEBD0000C405002095
:101330002DE9F0430268234B234D244E244C4FF0FB
:101340008049984207D0484505D0A84203D0B04212
:1013500001D0A04203D122F070074A683A431D4FE2
:10136000DFF874C0DFF8748098420DD048450BD088
:10137000A84209D0B04207D0A04205D0B84203D05D
:10138000604501D0404503D122F44075CA682A4324
:101390004D6922F080022A4302608A68C2620A68AC
:1013A0008262984207D0A04205D0B84203D060457F
:1013B00001D0404501D10969016301214161BDE8C6
:1013C000F0830000002C01400004004000080040B1
:1013D0000034014000400140004401400048014009
:1013E0000EB5002400946A46082101A8009401F07B
:1013F000ADFC10B101F0BEFF09E00098082806D14D
:1014000001A800F0B9FC10B101A800F0D2FC0098CE
:101410000028E8D102F06AFE18B100F0D1FA00F01D
:101420008FFD0A2001F00AFEDDE7FEE710B5124C41
:1014300003202061606111A0A06104F1A800E061B7
:10144000402020620020A06260620CA12166E06260
:1014500004F1E801616610212067C4E91A10606791
:1014600009A1E01DFEF771FF08A12046FEF76DFF00
:101470002020A07110BD0000082500205465726D69
:10148000696E616C00000000525454005345474798
:10149000455200000269C1688A4203D88068401A38
:1014A000104400E0501A401E70472DE9F047C46810
:1014B0001746894606464FF000083069A04201D918
:1014C000051B02E0B168201A0D1AB0686D1E001BE2
:1014D000A84200D80546BD4200D33D4670682A4662
:1014E00020444946FEF70DFFB0687F1B2C44A844FA
:1014F000A944A04200D10024F460002FDDD1404671
:10150000BDE8F0872DE9F04104468846D4E902079A
:10151000C51BE168606816460844B54206D94146D5
:10152000FEF7EFFEB819E060BDE8F0812A464146BB
:10153000FEF7E7FE761B08EB050132466068FEF712
:10154000E0FEE660F0E70907090E002804DB00F181
:10155000E02080F80014704700F00F0000F1E02058
:1015600080F8141D704702E008C8121F08C1002A45
:10157000FAD170477047002001E001C1121F002A14
:10158000FBD17047064D4FF408444FF47A7621465C
:101590002846FEF7CBFF304600F054F8F7E700008E
:1015A0000010004898B0FEF7DBFFFFF78BFE142118
:1015B00012A8FEF7BFFE1D48416941F400114161C8
:1015C00040691B4D00F400104FF4084417900022AE
:1015D00021462846FEF7B0FF012000211294CDE9F4
:1015E0001301159112A92846FEF7DCFE002001F038
:1015F00047FE00F041F824220E496846FEF781FEBE
:101600006A4600210C4800F073F80C4C094924226A
:101610002060243109A8FEF774FE09AA00210848B9
:1016200000F066F8606000F043F8FEE7001002404A
:10163000001000481441000891120008000000202A
:101640008515000810B5EFF3058149B9EFF3108156
:1016500031B908490968022905D1EFF3118111B1A7
:101660006FF0050403E0002408B101F0E7FC204618
:1016700010BD0000E4000020EFF3058058B9EFF33F
:10168000108040B909490868022801D030B109E04A
:10169000EFF3118030B16FF0050070470120086052
:1016A000002070474FF0FF3070470000E40000203A
:1016B00010B5EFF3058060B9EFF3108048B90B491E
:1016C0000868022802D0012806D00BE0EFF3118051
:1016D00040B16FF0050010BD0220086001F038FD38
:1016E000002010BD4FF0FF3010BD0000E4000020CE
:1016F000F0B585B04FEA01034FF00004EFF3058128
:101700000394A1BBEFF3108189BB21490968022929
:1017100002D1EFF3118151BB48B3802618218DF817
:10172000104004AD42B3176807B13D4697691FB139
:1017300039467F1E382F02D21779FF0702D00020CA
:1017400005B0F0BD576907B1BE08D2F808C0BCF1BA
:10175000000F0DD0D4685C2C18D312693AB137B1A0
:101760008DE806103246294602F083FA03900DE018
:10177000D7685FB912694AB903AACDE90012B2B2BB
:10178000294602F049FA012800D003940398D7E7CC
:10179000E40000202DE9F041134C0F460546666930
:1017A0002068001D01F0E6FA681C07D137B12168F6
:1017B000BDE8F0410D48091D01F03ABB20683544F1
:1017C000B5424560216805D2A068BDE8F041091D19
:1017D00001F016BB6068091D01F012FB206B854209
:1017E00000D22563BDE8F08194000020F02A00209B
:1017F0002DE9F041054601F027FB484C2069401CCB
:1018000020612068464F10B1E06930B32BE02560BD
:101810002069012827D1002606EB860007EB80000F
:1018200001F0E0FA761C382EF6D33E4801F0DAFAE1
:101830003C48143001F0D6FA3A48283001F0D2FA88
:1018400038483C3001F0CEFA3648503001F0CAFA40
:10185000344860601430A06005E02068E96AC06A1E
:10186000884200D82560E06A2F4E401CE062686420
:101870004DB3284600F05EF805F13401884628464D
:1018800000F058FE2846E96A00F026FE2B46424644
:101890000321012001F074F824480188284600F053
:1018A000A0FE00F087FC00F0EEFD318808420AD06F
:1018B000284600F0E8FD3188084204D0294610206F
:1018C000EA6A00F0CDFE284600F0DDFD31880842CE
:1018D00003D02946302000F091FEE86AA1698842D1
:1018E00000D9A06100EB800007EB8000291D01F00A
:1018F0009FFA01F0C9FAE06900280CD02068E96A73
:10190000C06A884207D20A494FF080500860BFF38E
:101910004F8FBFF36F8FBDE8F0810000940000206F
:1019200040260020A02A00200C0000200E000020ED
:1019300004ED00E00A4A002152F831303BB1491C65
:101940000A29F9DB07484168491C4160704742F8A1
:10195000310002EBC1014FF0FF30486070470000DA
:10196000B40C00207000002038B501F06DFA104C66
:10197000A068C8B90F4801F035FA0E48143001F0DC
:1019800031FA0C482060143060600A4B0020283384
:10199000009003F1500210210A2001F073FDA060B5
:1019A00010B105A101F004FBBDE8384001F06CBAAC
:1019B000D0000020042B0020546D72510000000064
:1019C00070B5144D00246868002803DD0E2001F076
:1019D000D3F86C60104D286818B1072001F0CCF8DE
:1019E0002C600E4D286818B1092001F0C5F82C6054
:1019F0000B4D2868192803D9082001F0BDF82C6088
:101A0000084D2868002803D00A2001F0B5F82C60A2
:101A100070BD00007000002054000020580000201D
:101A20005C0000206000002030B4026C0B46002AED
:101A30000BD0C1681144C1604468A14201D3016860
:101A4000C16030BC1846FEF75CBC30BC70472DE965
:101A5000F041856B174604460026026C82B1C7B17F
:101A6000E068FEF74EFCE168206C091AE16022682C
:101A7000914202D26168081AE060022F16D017E086
:101A80002068A8B9606802F0BBF9064600206060D3
:101A90000EE0A068FEF735FC216CA0680844A06049
:101AA0006168884204D32068A06001E005B16D1E22
:101AB0006D1CA5633046BDE8F08110B5044690F872
:101AC000590058B101280CD002280FD0502080F3C3
:101AD0001188BFF34F8FBFF36F8FFEE7206B01F0CC
:101AE000E7F92046BDE8104001F0E2B910BD000062
:101AF00010484FF44061420706D0C01D0D4920F048
:101B00000700411AC1F540610B4A00230144C2E9B4
:101B100000030839103A21F0070111604B600B6097
:101B20000B1AC0E9001393604FF000405360D0607F
:101B300070470000D4320020F8000020144E154CED
:101B4000A6F29C474FF08058DFF84C9012E000BF9F
:101B500001F07AF9F068C568281D01F00BF92069D9
:101B6000401E2061E068401EE06001F08DF92846CB
:101B7000FFF7A3FFE0680028EAD138680128F9D907
:101B8000C9F80080BFF34F8FBFF36F8FF2E70000FB
:101B9000DC2A00209400002004ED00E070B51E4611
:101BA000049C054651B32260C4E90F51012120462F
:101BB00001F09CFC194884F84C600188204600F034
:101BC00003FD00F0F7FA00F05EFC154E3188084284
:101BD00023D0204600F052FC318808421DD094F8F2
:101BE0004C0068B1012815D0032810D0042814D166
:101BF00021461720BDE8704000F000BD2460D3E707
:101C00002A462146BDE87040112000F029BD21463A
:101C10001220EFE721461320ECE770BD0E000020F4
:101C20000C0000202DE9F0470E46DDE90984174637
:101C3000824691009946089DA522206BFEF773FB12
:101C40006FF00301206B01EB8701084420F00707C8
:101C5000780707D0502080F31188BFF34F8FBFF370
:101C60006F8FFEE72218315C82F83410315C11B1BD
:101C7000401C1028F6D3002684F84360382D00D38A
:101C80003725E562C4E91356201D01F0B6F804F1CA
:101C9000180001F0B2F82461C5F138006462A06157
:101CA000666584F858604A465146384601F038F86F
:101CB0002060B8F1000F01D0C8F80040BDE8F087FF
:101CC00030B5114900E011460A688242FBD34B68E7
:101CD0005C18844203D14068184448600846436851
:101CE0001C18944209D1084C103C2468A24209D027
:101CF00052681A4442600A6812680260814200D049
:101D0000086030BD0460F9E7F800002070B50024D9
:101D100041600B4D0061914206D8D11A826991420F
:101D200006D2011D686807E09A4203D2994201D3A6
:101D3000012403E0011D286801F062F8204670BD0F
:101D4000D000002004498A68824202D088600120C5
:101D500070470020704700007000002010B5044656
:101D600001F072F8A06B28B15FF0000401F08CF86C
:101D7000204610BD0124F9E710B502784178837838
:101D8000C47811442344194403791944437919440C
:101D90004FF6FF73591AC379B3EB112F05D1807930
:101DA000C9B2884201D1012A01D9002010BD012009
:101DB00010BD0178012902D1407800F013B97047B5
:101DC00030B589B0304D55E00498002806DADDE9D9
:101DD0000601059A9047049800284BDB069C606931
:101DE00010B1201D00F0C6FF02A800F0E7F802467F
:101DF00004980A283ED2DFE800F00505053D2637A5
:101E000005053D260598A169034601442046FFF7D4
:101E10007DFF00B3616A20468847E069012829D127
:101E2000002000900598A169002342181946204619
:101E300002F028F978B9502080F31188BFF34F8F52
:101E4000BFF36F8FFEE70598A06128B18118134694
:101E50002046FFF75BFF0DE0502080F31188BFF3B1
:101E60004F8FBFF36F8FFEE794F82C0010B9204618
:101E700001F01EF8002204A9A86801F061FD002805
:101E8000A2D109B030BD0000D00000202DE9FC41F6
:101E90000F46054601F0A0F901A800F08FF80446AE
:101EA000019818B102F04EF8BDE8FC81224EAFB1A6
:101EB00070680068A8B30027291B3A46B06801F093
:101EC0009BF802F03FF80028EED11C494FF08050FB
:101ED0000860BFF34F8FBFF36F8FE5E7A542EBD8E4
:101EE00002F030F830682746C068C468201D00F052
:101EF00041FFE069012810D1A0692B4641193A46FB
:101F00002046FFF703FF40B1002003460146009042
:101F10002A46204602F0B6F820B1616A204688477A
:101F2000C2E707E0502080F31188BFF34F8FBFF363
:101F30006F8FFEE70127BFE7D000002004ED00E02F
:101F40002DE9F041134C144D0026E7684FF00A08C4
:101F5000E06855F8300078B100F022FFE16805EB49
:101F6000C1025368834200D95060526855F831105D
:101F7000EA2000F075FB761CE068401C90FBF8F24C
:101F800008FB1200E060012E01DAB842E0D1BDE8A2
:101F9000F081000070000020B40C00200648416869
:101FA000096829B14168C968C9684968016370470F
:101FB0004FF0FF31FAE700009400002070B50546AD
:101FC00001F096FE064E04463069844203D200F0CA
:101FD00055F8012000E0002028602046346170BDE3
:101FE000D00000202DE9FC5FDFF88C800746D8F890
:101FF0002000B8423ED0EFF3108A012080F3108811
:10200000A7B34FF0000BFF20C8F828B0454688F86A
:10201000000000F08DFB00F035FD00F0CDFBEFF38C
:102020001089012080F31088A86C042501AC0026DB
:1020300001906A4629462046CDF800B001F09DF98E
:1020400018B1062000F080F805E0009806F10106BE
:1020500004442D1AEDD1012E02D90D2000F08CFD83
:1020600089F3108800F046FC00F048FD8AF31088E0
:10207000C8F82070BDE8FC9F08000020F8B5194D95
:102080001FE0C068C4680668201D00F073FE616A26
:1020900020468847E069012813D1A0693044B04246
:1020A00006D924616060211D286800F0A9FE08E0BF
:1020B00000200346014600903246204601F0E2FF30
:1020C00038B1286801680029DBD16968C5E90010CA
:1020D000F8BD502080F31188BFF34F8FBFF36F8F8F
:1020E000FEE70000D0000020002101E0401C491C58
:1020F0000278A52AFAD0C1F38F00704708484068DB
:10210000401C4FF0500080F3118804D0BFF34F8F74
:10211000BFF36F8FFEE7BFF34F8FBFF36F8FFEE705
:1021200000010020074C2068016841B1C06800210F
:10213000D0F80000FFF7AAFEFFF742FEF3E7012107
:102140000020F7E7D00000200F4910B58A69002A67
:1021500018D1431E01229A408861CB681A43CA6095
:1021600000F02AF8094C02469020216800F05CFB40
:1021700007A29020216800F057FBBDE81040002026
:10218000FFF730BF10BD00000800002080000020D5
:102190005265636F726465722073746F70706564EA
:1021A00020696E2070727654726163654572726F39
:1021B0007228290001F088BD0F2823D2DFE800F043
:1021C0002216181A1C1E20080A0C0E1020141200C9
:1021D0000DA0704719A0704725A0704731A0704727
:1021E0003AA0704746A0704750A070475CA0704767
:1021F00066A0704770A070477AA0704785A07047AE
:1022000090A07047002070474578636565646564F9
:102210002053594D424F4C5F5441424C455F534C03
:102220004F54532028736565207072765472616331
:10223000654765744572726F722900004578636561
:10224000656465642053594D424F4C5F4D41585F62
:102250004C454E475448202873656520707276546B
:10226000726163654765744572726F722900000080
:102270004578636565646564204F424A4543545F11
:10228000444154415F534C4F54532028736565209B
:1022900070727654726163654765744572726F72CD
:1022A00029000000537472696E6720746F6F206C90
:1022B0006F6E672028736565207072765472616353
:1022C000654765744572726F722900005452435F0E
:1022D00053545245414D5F504F52545F5245414413
:1022E0005F444154412072657475726E6564206567
:1022F00072726F722028213D2030292E00000000CC
:102300005452435F4346475F535441434B5F4D4FE5
:102310004E49544F525F4D41585F5441534B5320E7
:10232000746F6F20736D616C6C210000426C6F6381
:102330006B696E6720696E20765472616365456EC5
:1023400061626C65202873656520785472616365ED
:102350004765744C6173744572726F722900000096
:10236000496E76616C6964206576656E7420636F72
:1023700064652028736565207072765472616365A8
:102380004765744572726F72290000004578636575
:102390006564656420495352206E657374696E6785
:1023A0002028736565207072765472616365476595
:1023B000744572726F722900445754206E6F7420F6
:1023C000737570706F727465642028736565207012
:1023D000727654726163654765744572726F7229D3
:1023E000000000004457545F435943434E54206E4D
:1023F0006F7420737570706F7274656420287365D4
:1024000065207072765472616365476574457272B7
:102410006F722900436F756C64206E6F7420637255
:102420006561746520547A4374726C202873656505
:102430002070727654726163654765744572726F7D
:10244000722900005452435F53545245414D5F502E
:102450004F52545F57524954455F44415441207292
:10246000657475726E6564206572726F72202821C2
:102470003D2030292E00000000F08FBC10B500F088
:102480008CFC000C10BD10B500F092FC000C10BDCF
:102490000E490D4808600E48016841F080710160E6
:1024A000006838B10B480168890105D55FF0040068
:1024B000FFF74ABE0320FBE700214160016841F0BD
:1024C000010101607047000055CEACC5B01F00E0AF
:1024D000FCED00E0001000E0F0B5EFF31086012203
:1024E00082F31088114C0025114F63691A4608E0E9
:1024F00025F0030C5CF807C0844501D12A4602E0B0
:1025000008359542F4D3B2F5A07F09D222F0030535
:102510007851E8199A42416005D10833636102E0BD
:10252000206D401C206586F31088F0BD0800002057
:10253000040B002070B5EFF31082012383F31088A1
:10254000124B1C69B4F5A06F1AD2114D24F003068A
:10255000A851254400202D1D0E5C2E540E5C46B162
:10256000401C1928F8D300E0401C0D5C0DB18028F8
:10257000FAD3596D884200D9586520341C6102E0B5
:10258000D86C401CD86482F3108870BD080000200D
:102590000406002030B50025EFF31084012181F3FB
:1025A000108807490969B1F5A06F05D2054A551889
:1025B00001462846FFF7BEFF84F31088284630BD49
:1025C000080000200406002070B504460D46FFF701
:1025D00053FF65F31F4001462046BDE8704000F000
:1025E00009BD70B504460D4600F0E2FB65F31F40DF
:1025F00001462046BDE8704000F0A6BD7FB5B0F5AD
:10260000805F05D304B00120BDE87040FFF79CBD9A
:10261000EFF31084012282F310880F4A136ABBB1D2
:10262000936A40F480505B1C9362ADF800000B4845
:10263000ADF802304068CDE901010020039003AA03
:102640000C21684600F099FE10B10020FFF7CAFC8B
:1026500084F310887FBD000008000020001000E017
:1026600030B585B0B0F5805F05D305B00120BDE879
:102670003040FFF769BDEFF31084012383F3108826
:102680000F4B1D6AC5B19D6A40F400506D1C9D62E0
:10269000ADF800000B48ADF80250406801AD85E888
:1026A00007000020049004AA1021684600F065FE8F
:1026B00010B10020FFF796FC84F3108805B030BD00
:1026C00008000020001000E070B586B0B0F5805F13
:1026D00005D306B00120BDE87040FFF735BDEFF32C
:1026E0001084012585F310880F4D2E6AC6B1AE6A9D
:1026F00040F44050761CAE62ADF800000B48ADF8D7
:102700000260406801AE86E80F000020059005AA2F
:102710001421684600F031FE10B10020FFF762FC82
:1027200084F3108806B070BD08000020001000E09F
:102730002DE9F0418CB0EFF31085012080F3108873
:102740001C49082203AC486A03904888ADF8100081
:1027500041F6A120ADF8120000200590896806918D
:102760002021ADF81C102821ADF82020ADF81E1056
:10277000ADF8221018260746804602AA31462046A8
:10278000CDF8088000F0F9FD18B10620FFF7DCFC59
:1027900005E0029807F101070444361AEDD1012F34
:1027A00002D90D2000F0E8F985F310880CB0BDE8DF
:1027B000F0810000080000202DE9FE4F0025EFF316
:1027C0001089012080F31088DFF858A001AC0020A8
:1027D00051462A1851F8222044F82020401C022893
:1027E000F7D308260027B8466A4631462046CDF87A
:1027F000008000F0C2FD18B10620FFF7A5FC05E03F
:10280000009807F101070444361AEDD1012F02D9CF
:102810000D2000F0B1F9AD1C502DD7D389F31088ED
:10282000BDE8FE8F040B0020F0B50746002099B0EC
:10283000034600E05B1CD45C0CB1342BFADB1C1D9E
:10284000E51704EB9574A41011B17F1CBFB2401CB6
:102850008600044425480F2C08DDA300846D3C3B12
:10286000A34200D983650F24C6F13C03EFF3108522
:102870004FF0010C8CF31088D0F820C0BCF1000F91
:102880002FD0D0F828E04FF0080C0CEB840C0EF1A0
:10289000010EC0F828E047EA0434ADF81040144CAB
:1028A000ADF812E004A86468059406AC01B1069185
:1028B000002105E0575C06EB010E491C04F80E7080
:1028C0009942F7DBC6F13C0200219A4201DDF21881
:1028D000A15400916A46614600F04FFD08B100F036
:1028E00049FD85F3108819B0F0BD000008000020F4
:1028F000001000E02DE9F0418AB0EFF310850120CF
:1029000080F310881C4CE06D20B3FFF753FCA16AE4
:1029100043F20102491CA162ADF80C20ADF80E1083
:10292000164903AE49680491216BCDE90510E069B1
:102930000790401CE06114240027B84602AA2146F3
:102940003046CDF8088000F018FD28B10620FFF7CA
:10295000FBFB07E00220DAE7029807F101070644D3
:10296000241AEBD1012F02D90D2000F005F985F3CF
:1029700010880AB0BDE8F08108000020001000E0D7
:102980000FB41CB50023069A00E05B1CD45C0CB1AC
:10299000342BFADB07ACCDE90024002200F004F868
:1029A0001CBC5DF814FB00002DE9F04F84468946FD
:1029B000181D99B0C117934600EB9170DDE922EA2A
:1029C0000CEBA0022D484FEA8C070F2A08DD91007E
:1029D000826D3C39914200D981650F22C7F13C03D9
:1029E000EFF31085012181F31088016AE9B3D0F873
:1029F0002880082101EB820108F10108C0F8288035
:102A000049EA0232ADF814201D4AADF8168005A837
:102A1000526807AC06922646002208E0BBF1000F80
:102A200000D042B15AF8048B46F82280521C62450D
:102A3000F4DB002209E0C6F800B0F7E71EF80260F8
:102A400007EB020C521C04F80C609A42F6DBC7F14B
:102A50003C0600229E4201DD3B44E25400926A465D
:102A600000F08BFC08B1002000E001E0FFF7BAFAAB
:102A700085F3108819B0BDE8F08F00000800002031
:102A8000001000E02DE9F04790B00025EFF3108929
:102A9000012080F31088DFF860A005AC00205146CB
:102AA0002A1851F8222044F82020401C0828F7D387
:102AB00020260027B84603AA31462046CDF80C80D0
:102AC00000F05BFC18B10620FFF73EFB05E0039821
:102AD00007F101070444361AEDD1012F02D90D2068
:102AE00000F04AF80835B5F5A07FD6D389F31088F1
:102AF00010B0BDE8F087000004060020F0B51B49C7
:102B00008BB0486B10B91A4800684863886A44F271
:102B10000202401C8862ADF80C20ADF80E0015488A
:102B200003AC40680490486B05904FF47A700690AF
:102B300000270120CDE9070718253E4602AA2946AD
:102B40002046029700F019FC18B10620FFF7FCFAA6
:102B500005E0029806F1010604442D1AEED1012E7B
:102B600002D90D2000F008F80BB0F0BD08000020DD
:102B700090000020001000E0421E01219140094A0F
:102B800010B5D36819420BD11943D160FFF714FB7C
:102B9000024605480168BDE810409020FFF744BE9A
:102BA00010BD000008000020800000202DE9F04149
:102BB000044600F049F994F9455004F1240609E06F
:102BC000606A48B1304601F079F908B100F072FA54
:102BD0006D1E6DB2002DF3DC4FF0FF3684F84560BA
:102BE00000F052F900F030F994F9445004F1100764
:102BF00009E0206948B1384601F060F908B100F0F9
:102C000059FA6D1E6DB2002DF3DC84F84460BDE806
:102C1000F04100F039B900002DE9F04104460027E9
:102C200000F0DAFA3B4E306808B9FEF761FFF06851
:102C3000044250D1C4B3083460070ED004F007003A
:102C4000C0F108000444600707D0502080F31188C9
:102C5000BFF34F8FBFF36F8FFEE72CB370688442D2
:102C600039D82C48103001460D6801E028460D4641
:102C70006968A14202D229680029F7D131688D42E2
:102C800029D007682968016068680837011B102986
:102C90000FD92819420708D0502080F31188BFF3BC
:102CA0004F8FBFF36F8FFEE715E041606C60FFF759
:102CB00007F869687068401A7060B268904200D284
:102CC000B060F06801430020C5E900011FB112485F
:102CD000016821440160FFF76DFAFFF7D4FB0F494B
:102CE0000988084207D0224639460FB1382000E053
:102CF000E920FFF7B5FC01F025F9780707D050204F
:102D000080F31188BFF34F8FBFF36F8FFEE7384614
:102D1000BDE8F081E8000020100000200C00002039
:102D200010B5031F4FF080741C601B1F21F00101C0
:102D30001960191F044B0B6014390A60091F6FF0EA
:102D4000020244380A6010BDFD20000810B5144688
:102D5000074A52F8843F5268934206D00A46014619
:102D60000120FEF703FA04B12060002010BD00002E
:102D700008250020D0E9013201699A60D0E90123D9
:102D80005A604A68824201D182684A600022026128
:102D90000868401E086008687047806C7047000033
:102DA00008B902480068006BFFF79EB99400002044
:102DB000002800D0806C7047034B036003F15C0077
:102DC00008608020106070471C2C0020044B0360BA
:102DD00003F15C0008604FF48070106070470000E1
:102DE000782E002000F108014FF0FF32C0E90112F7
:102DF000C1600161002101607047002101617047DD
:102E000030B50B685A1C02D000F1080202E00269DA
:102E100004E02246546825689D42FAD953684B6005
:102E200099608A60516008610168491C016030BD89
:102E300042684A6093688B6093685960916008614A
:102E40000168491C01607047502080F31188BFF36E
:102E50004F8FBFF36F8F0A494868401C48600128B4
:102E60000CD10848006810F0FF0F07D0502080F305
:102E70001188BFF34F8FBFF36F8FFEE770470000DD
:102E80000001002004ED00E00849486828B1401E18
:102E9000486001D180F311887047502080F3118879
:102EA000BFF34F8FBFF36F8FFEE7000000010020DC
:102EB00070B5051E39D01D4EA5F108046168F06893
:102EC000014207D1502080F31188BFF34F8FBFF329
:102ED0006F8FFEE722683AB1502080F31188BFF36C
:102EE0004F8FBFF36F8FFEE78143616000F074F98D
:102EF00060687168014471600D490A68101A0860C1
:102F0000FFF758F9FFF7BFFA0A490988084205D0C8
:102F10006068294642423920FFF7A2FB2046FEF7AF
:102F2000CFFEBDE8704001F00DB870BDE800002094
:102F3000100000200C0000204FF0E0200021016173
:102F4000816105494FF47A720968B1FBF2F1491EBB
:102F500041610721016170479000002010B5FDF725
:102F600079F9114910280ED300F1E02090F8F00310
:102F70000A78904207D2502080F31188BFF34F8F18
:102F8000BFF36F8FFEE709480068896800F4E060CE
:102F9000884207D9502080F31188BFF34F8FBFF3C9
:102FA0006F8FFEE710BD0000000100200CED00E077
:102FB0002DE9F0410E4D0E460746002455F8340029
:102FC00020B1641C082CF9D3BDE8F08105EBC400E6
:102FD00045F83460476031463846FFF7ABFA3B4668
:102FE0003246BDE8F04103210120FFF7C9BC0000D3
:102FF000002600208164704770B515460E460446D1
:10300000FFF722FF94F944100020491C01D184F8F5
:10301000440094F94510491C01D184F84500FFF79C
:1030200033FFA06B28B92A46314604F1240000F092
:103030005FF82046BDE87040FFF7B8BD10B504004A
:1030400020D01548806B38B1502080F31188BFF331
:103050004F8FBFF36F8FFEE700F0BEF8FFF7AAF8BF
:10306000FFF711FA0D490988084203D021467A205A
:10307000FFF7C4FA00212046FEF78CFB00F062FF48
:10308000002807D106494FF080500860BFF34F8FEA
:10309000BFF36F8F10BD0000940000200C000020D3
:1030A00004ED00E002498A6A0260496941607047A4
:1030B00094000020014901204862704794000020DC
:1030C00010B50C4650B1094909681831FFF798FE50
:1030D0002046BDE810400121FEF75CBB502080F384
:1030E0001188BFF34F8FBFF36F8FFEE7940000206E
:1030F00070B515460C46D0B1114E31681831FFF746
:1031000097FE0DB14FF0FF34FFF754F8FFF7BBF90E
:103110000C490988084204D0706901197920FFF729
:103120006DFA29462046BDE87040FEF733BB5020BB
:1031300080F31188BFF34F8FBFF36F8FFEE700005E
:10314000940000200C000020002800D0816470470B
:1031500030B587B00024039405AA04A903A80494F9
:10316000FFF72AFEDDE903010094CDE901100023F9
:1031700015A11748059A00F07CFD164D00286863DC
:103180001FD000F04FFF012809D0401C19D150205A
:1031900080F31188BFF34F8FBFF36F8FFEE750208E
:1031A00080F31188BFF34F8FBFF36F8F4FF0FF3065
:1031B00028630120E8616C6107B0BDE8304000F091
:1031C000E7B807B030BD000049444C45000000009E
:1031D0003D1B0008940000200248816B491C81635C
:1031E000704700009400002070B5214CA06B0123B3
:1031F00008B1636270BD00206062A0691D4901E0F2
:1032000068B3401E00EB800251F82220002AF7D05C
:1032100000EB800201EB820101F108054A68526867
:103220004A60AA4201D152684A60D1682160A06117
:10323000114D2B60FEF7BEFFFFF725F90F490988F6
:10324000084209D02068FEF77DFD28B1206821687A
:10325000C26A3720FFF704FA0220286070BD5020B0
:1032600080F31188BFF34F8FBFF36F8FFEE700002D
:103270009400002040260020640000200C00002064
:10328000F0B587B0304D0024074605942868012624
:1032900020BB41F288332D4A2DA101200094FDF777
:1032A00035FF20232C4A2DA101200094FDF7FEFEBE
:1032B0002CA000F021FF2861244800965C38A0F57E
:1032C0008061CDE901100023320224A1274800F0DB
:1032D000D0FC286010B90520FEF736FF022F05D07C
:1032E000012F27D0FFF7D4F807B0F0BD204D05AA75
:1032F000082103A80594FFF729FD18B10B20FFF75B
:103300003BFC13E00598082810D103A8FEF734FD14
:1033100060B19DF80C00012805D19DF80D00012831
:1033200001D1FFF7B5F803A8FEF743FD2868002890
:10333000DDD0D9E7FFF7ACF88DF80C608DF80D60A3
:1033400003A8FEF736FDCFE77000002060110020D3
:10335000547A446174610000E8240020547A437474
:10336000726C00002357465200000000E113000871
:10337000280000200020FEF735BE10B514460A468E
:1033800001460120FDF73AFF04B12060002010BD86
:103390001CB537480168374A914207D1502080F365
:1033A0001188BFF34F8FBFF36F8FFEE7006831497D
:1033B000491E884207D1502080F31188BFF34F8FF8
:1033C000BFF36F8FFEE72C4908780190FF2008704B
:1033D00008788DF800009DF800009DF8002000F0AE
:1033E000F000904207D0502080F31188BFF34F8F38
:1033F000BFF36F8FFEE79DF80000204B00F05000F8
:1034000018700720986005E09DF8002052008DF8A4
:103410000020401E9DF800201206F5D49860032875
:1034200007D0502080F31188BFF34F8FBFF36F8F09
:10343000FEE74FF440709860019808700C48203007
:10344000016841F470010160016841F07041016060
:10345000FFF772FD00205860FCF7C4FE08480168C1
:1034600041F040410160FCF7A9FE00201CBD0000B6
:1034700000ED00E071C20F4100E400E00001002017
:1034800034EF00E038B5049D18B153B1CAB181B131
:1034900020E0502080F31188BFF34F8FBFF36F8F70
:1034A000FEE7502080F31188BFF34F8FBFF36F8F7B
:1034B000FEE7502080F31188BFF34F8FBFF36F8F6B
:1034C000FEE739B1502080F31188BFF34F8FBFF36F
:1034D0006F8FFEE750241C46012384F846302B46AC
:1034E0000094FEF75BFB204638BD000070B50D462A
:1034F000040025D0FFF7A8FCD4E90F20216802FBC7
:10350000001161600021A1632168A1600A46D4E92D
:103510000F01401E00FB0121E16021464FF0FF300A
:1035200001F8440F487004F110008DB1FFF75AFC08
:1035300004F12400FFF756FCFFF7A6FC012070BD44
:10354000502080F31188BFF34F8FBFF36F8FFEE7DA
:1035500021690029F0D000F0B1FC0028ECD004492A
:103560004FF080500860BFF34F8FBFF36F8FE3E7DA
:1035700004ED00E02DE9FF4F83B01E468B464FF06F
:103580000009040003D0BBF1000F08D011E0502067
:1035900080F31188BFF34F8FBFF36F8FFEE7206C6E
:1035A00038B1502080F31188BFF34F8FBFF36F8F76
:1035B000FEE7022E0AD1E06B012807D0502080F3ED
:1035C0001188BFF34F8FBFF36F8FFEE700F082FBD0
:1035D000DFF82C828B4D4FF0000A4FF0805748B92E
:1035E000059838B1502080F31188BFF34F8FBFF397
:1035F0006F8FFEE7FFF728FCA06BE16B884207D3D3
:10360000022E05D00598E0B3B9F1000F68D06CE048
:10361000FEF7D0FDFEF737FF2988084222D020466A
:10362000FEF72CFF298808421CD094F84C0005288E
:1036300018D2DFE800F003130E0E1300A26B521C29
:103640002EB1C0204FEA0401FFF70AF80AE050202B
:10365000F8E7A26B51202146521CF5E72146522083
:10366000FEF7CCFF324659462046FEF7F0F9616A74
:1036700019B104F1240000F021FC38B1C8F8007041
:1036800000E009E0BFF34F8FBFF36F8FFFF7FCFB44
:10369000012007B0BDE8F08FFFF7F6FBFEF78AFDCB
:1036A000FEF7F1FE2988084214D02046FEF7E6FE18
:1036B000298808420ED094F84C0005280AD2DFE889
:1036C00000F0930A98980A00532000E0C120214698
:1036D000FEF7C6FF91E021465520FEF78FFF8CE0F4
:1036E0006846FFF7DFFC4FF00109FFF7CDFBFFF75E
:1036F00073FDFFF7A9FB94F94400401C01D184F845
:1037000044A094F94500401C01D184F845A0FFF77E
:10371000BBFB05A9684600F045FAD8B12046FFF783
:1037200045FA00F00FFCFEF745FDFEF7ACFE2988D8
:10373000084262D02046FEF7A1FE298808425CD0EC
:1037400094F84C00052858D2DFE800F04E0353539C
:103750000300C0E7FFF778FBA06BE16B884217D14D
:10376000FFF792FBFEF726FDFEF78DFE2988084243
:1037700027D02046FEF782FE2988084221D094F8FF
:103780004C0005281DD2DFE800F00B1814141800B7
:10379000FFF77AFB2046FFF709FA00F0D3FB29E791
:1037A000A26B26B1C2202146FEF75AFF09E056203F
:1037B000F9E7A26B21465720F6E721465820FEF78D
:1037C0001DFF04F110000599FFF77AFC2046FFF772
:1037D000EDF900F0B7FB0028E1D1C8F80070BFF3A5
:1037E0004F8FBFF36F8F05E7A26B002E7FF46EAF94
:1037F0006AE7A26B214654206AE7002049E70000EF
:1038000004ED00E00C0000202DE9F0471D46904635
:103810008A46040003D0BAF1000F08D011E050200E
:1038200080F31188BFF34F8FBFF36F8FFEE7206CDB
:1038300038B1502080F31188BFF34F8FBFF36F8FE3
:10384000FEE7022D0AD1E06B012807D0502080F35B
:103850001188BFF34F8FBFF36F8FFEE7FFF77EFB3B
:103860005020EFF3118780F31188BFF34F8FBFF320
:103870006F8FA06BE16BDFF8C490884210D3022DEC
:103880000ED02046FEF7FAFDB9F80010084249D0E4
:1038900094F84C0078B302284BD0032842D148E07A
:1038A00094F945602046FEF7E9FDB9F8001008429A
:1038B0000ED094F84C0020B1022817D0032807D16D
:1038C00014E0A26B521C7DB1C3202146FEF7C8FE56
:1038D0002A4651462046FEF7BAF8701C0CD0761CDA
:1038E00084F8456001201EE05920EEE7A26B5A20C3
:1038F0002146521CEAE70FE0606A0028F2D004F18A
:10390000240000F0DBFA0028ECD0B8F1000FE9D079
:103910000121C8F80010E5E7A26B45B1C42021469B
:10392000FEF79EFE002087F31188BDE8F0875C203B
:10393000F5E7A26B21465D20F2E700000C000020B5
:103940002DE9F74F002782B08B46040003D0BBF16E
:10395000000F08D011E0502080F31188BFF34F8F83
:10396000BFF36F8FFEE7206C38B1502080F31188D1
:10397000BFF34F8FBFF36F8FFEE700F0ABF9DFF8B7
:103980001C92874D4FF0000A4FF0805848B90498B8
:1039900038B1502080F31188BFF34F8FBFF36F8F82
:1039A000FEE7FFF751FAA66BF6B359462046FEF73D
:1039B0003BF8FEF7FFFBFEF766FD2988084220D0A2
:1039C0002046FEF75BFD298808421AD094F84C0087
:1039D000052816D2DFE800F0031008081000A36BDA
:1039E00021466020049A03E0A36B049A21466120DB
:1039F0005B1EFEF769FE04E021466220049AFEF792
:103A00002FFE761EA663206950B104F1100000F06D
:103A100055FA28B1C9F80080BFF34F8FBFF36F8FFD
:103A2000FFF732FA012000E002E005B0BDE8F08FB8
:103A3000049808B10FB324E0FFF726FAFEF7BAFBAB
:103A4000FEF721FD2988084210D02046FEF716FD1A
:103A5000298808420AD094F84C00052806D2DFE8ED
:103A600000F0910696960600FEF72EFE94E02146A1
:103A70006520049AFEF7F4FD8EE06846FFF712FB1E
:103A80000127FFF701FAFFF7A7FBFFF7DDF994F92C
:103A90004400401C01D184F844A094F94500401C26
:103AA00001D184F845A0FFF7EFF904A9684600F0BA
:103AB00079F80028204620D0FFF778F800F042FA85
:103AC0002046FEF74BF900283FF46BAFFEF772FB80
:103AD000FEF7D9FC298808425ED02046FEF7CEFCCE
:103AE0002988084258D094F84C00052854D2DFE8C1
:103AF00000F049034E4E0300B9E7FEF72FF9D0B3AB
:103B0000FEF758FBFEF7BFFC298808421FD020466D
:103B1000FEF7B4FC2988084219D094F84C00052817
:103B200015D2DFE800F0030F08080F00A36B214651
:103B30006620049A03E0A36B21466720049AFEF7EF
:103B4000C3FD04E021466820049AFEF789FD04F1D4
:103B500024000499FFF7B4FA2046FFF727F800F095
:103B6000F1F900287FF41DAFC9F80080BFF34F8F33
:103B7000BFF36F8F15E7FFE72046FFF717F800F058
:103B8000E1F90EE7A36B21466320049A6CE7A36B6F
:103B900021466420049A67E7002044E704ED00E032
:103BA0000C0000202DE9F0410C46050011D0C4B1F5
:103BB000FFF74AF9174B5A696E682068911B471C3A
:103BC00017D02F689B6A9F4219D0964217D80124BC
:103BD00010E0502080F31188BFF34F8FBFF36F8F39
:103BE000FEE7502080F31188BFF34F8FBFF36F8F34
:103BF000FEE70024FFF748F92046BDE8F08188423F
:103C000005D9401A20602846FFF74CFAF1E700205A
:103C10002060DCE7940000202DE9FF5F8346DDE9AA
:103C20000E87994616468A469000FEF7F5FF050076
:103C30001CD05C20FEF7F0FF040014D000202563A8
:103C400084F85900CDE90240CDE900874B46324661
:103C500051465846FDF7E6FF2046FDF7C9FD012015
:103C600004B0BDE8F09F2846FFF722F94FF0FF307F
:103C7000F6E7F0B585B0DDE90B640A9DA6B1DCB1CD
:103C80005C2700972663022684F85960002604AF5B
:103C9000CDE90246CDE90057FDF7C4FF2046FDF708
:103CA000A7FD049805B0F0BD502080F31188BFF344
:103CB0004F8FBFF36F8FFEE7502080F31188BFF363
:103CC0004F8FBFF36F8FFEE7014800687047000019
:103CD000940000200548C16919B1806B18B100201B
:103CE00070470120704702207047000094000020B8
:103CF0000148406970470000940000202DE9F04120
:103D00003B4C0027A06B012801D0206A18B9394824
:103D10000168491C0160A06B20B961693120491C10
:103D2000FEF76CFCA06B40B1206A401C2062606A08
:103D300000B101273846BDE8F0816669761C6661EE
:103D400013D16068006838B1502080F31188BFF348
:103D50004F8FBFF36F8FFEE76068A1686160A0605E
:103D6000A06A401CA062FEF719F9206BDFF888807A
:103D7000864209D36068006880B16068C068C56821
:103D8000686886420DD220632068C06A00EB80011B
:103D900058F821000128CAD90127C8E74FF0FF30A1
:103DA000F1E7281DFEF7E6FFA86A18B105F1180033
:103DB000FEF7E0FF2846FEF766FB10490988084237
:103DC00003D029463020FEF719FCE86AA169884231
:103DD00000D9A06100EB800108EB8100291DFFF7ED
:103DE00027F8E86A2168C96A8842C3D30127C1E776
:103DF0009400002038000020402600200C00002005
:103E000070B504004FF0000150D0294D286884425D
:103E100007D0502080F31188BFF34F8FBFF36F8F0F
:103E2000FEE7206D38B1401E2065E36CE26A9A42DD
:103E30003CD040B13AE0502080F31188BFF34F8F5F
:103E4000BFF36F8FFEE7201DFEF794FFFEF7B2F978
:103E5000FEF719FB174E318808420AD02046FEF7BC
:103E600012FB3188084204D021460620E26CFEF79E
:103E7000F7FBE06CE062C0F13800A0612046FEF77D
:103E800002FB3188084203D021463020FEF7B6FB02
:103E9000E06AA969884200D9A861074900EB80005F
:103EA00001EB8000211DFEF7C3FF0121084670BD14
:103EB000940000200C0000204026002070B5C0684F
:103EC000C46854B104F118000646FEF753FF194DBB
:103ED000A86B50B13146184820E0502080F311887B
:103EE000BFF34F8FBFF36F8FFEE7201DFEF742FF3A
:103EF0002046FEF7C8FA11490988084203D0214636
:103F00003020FEF77BFBE06AA969884200D9A861EE
:103F10000B4900EB800001EB8000211DFEF788FFBC
:103F2000E06A2968C96A884202D90120686270BDC6
:103F3000002070BD94000020C82A00200C00002042
:103F4000402600202DE9F041314C00252F46A06B82
:103F500038B1FEF779FFA06B401EA063A06B40B1A3
:103F600050E0502080F31188BFF34F8FBFF36F8F65
:103F7000FEE72069274E4FF0010840BB42E0F068A1
:103F8000C56805F11800FEF7F5FE281DFEF7F2FEE4
:103F90002846FEF778FA20490988084203D02946C6
:103FA0003020FEF72BFBE86AA169884200D9A061A6
:103FB0001A4900EB800001EB8000291DFEF738FF55
:103FC000E86A2168C96A884201D3C4F8248030684D
:103FD0000028D4D10DB1FDF7E1FF256A45B1464671
:103FE000FFF78CFE00B166626D1EF9D100202062E1
:103FF000606A38B10A49012738070860BFF34F8F5C
:10400000BFF36F8FFEF740FF3846BDE8F081000038
:1040100094000020C82A00200C0000204026002028
:1040200004ED00E010B586B0FDF79EFC114CA068D1
:10403000B8B100200390049005AA04A903A8FEF7D4
:10404000C5FEDDE9032102208DE8070000230AA157
:104050000B48059AFFF70DFEE06010B106B0012095
:1040600010BD502080F31188BFF34F8FBFF36F8FC7
:10407000FEE70000D0000020546D722053766300EC
:10408000252100082DE9FF411E46134602000A9D26
:104090004FF0000016D0144CA768002F0FD0CDE9C8
:1040A00000130292062917DAFFF714FE02284FF0D8
:1040B00000030FD000226946A068FFF75BFA04B046
:1040C000BDE8F081502080F31188BFF34F8FBFF31C
:1040D0006F8FFEE72A46EEE70023324669463846F0
:1040E000FFF792FBEBE70000D00000200148006AD8
:1040F000704700000800002070B506460325FEF753
:1041000049FA04460346324629460120FEF738FCA8
:10411000204670BD94410008000000000C03002000
:104120005C0000000C0100200002000018000000EC
:104130000000000000000000A04100080000000096
:10414000680500205C0000006803002000020000F9
:104150000800000000000000000000000203040549
:10416000060708090A0B0C0D0E0F101001020304BC
:1041700005060708090A0B0C0D0E0F1000000000C1
:104180000000000001020304060708090000000007
:104190000102030464656661756C745461736B009D
:1041A0004C6564436F6E74726F6C6C6572000000D6
:1041B000D0410008000000200C0100006615000836
:1041C000DC4200080C010020CC41000076150008FC
:1041D0000000000000000000FFFF0600FFFF0100DC
:1041E00000000000000000000000000000000000CF
:1041F00000000000000000000000000000465350D6
:1042000000000000000000000000000000000000AE
:104210000000000088130000881300000000000068
:10422000000000010000000000000000000000008D
:10423000000000000000000000000000FFFFFFFF82
:10424000000000000000000000000000000000006E
:10425000000000000100000010000000000000004D
:1042600000127A00000000000000000000000000C2
:10427000000000000000000000000000000000003E
:10428000000000000000000000000000000000002E
:10429000000000000000000000000000000000001E
:1042A000000000000000000000000000000000000E
:1042B00000000000000000000000000000000000FE
:1042C00000000000000000000000000000000000EE
:0C42D00000000000AAAAAAAA000000003A
:040000050800018965
:00000001FF
