:020000040800F2
:10000000A81D00205D02000897100008931000084A
:10001000951000088D030008091200080000000078
:100020000000000000000000000000009D0100082A
:100030008F03000800000000F9010008B910000853
:1000400077020008770200087702000877020008AC
:10005000770200087702000877020008770200089C
:10006000770200087702000877020008770200088C
:10007000770200087702000877020008770200087C
:10008000770200087702000877020008770200086C
:10009000770200087702000877020008770200085C
:1000A000770200084D110008770200087702000867
:1000B000770200087702000877020008770200083C
:1000C000770200087702000877020008770200082C
:1000D000770200087702000877020008770200081C
:1000E000770200087702000877020008770200080C
:1000F00077020008770200087702000877020008FC
:10010000000000000000000000000000770200086E
:1001100077020008770200087702000877020008DB
:1001200077020008770200087702000877020008CB
:1001300077020008770200080000000000000000BD
:10014000770200087702000877020008000000002C
:10015000000000000000000000000000000000009F
:10016000000000000000000077020008770200088D
:1001700077020008000000000000000000000000FE
:100180000000000077020008DFF80CD000F0ECF867
:100190000048004751120008A81D00202C4B196888
:1001A0000868B0E8F04F80F30988BFF36F8F4FF015
:1001B000000080F3118870470000000008480068C4
:1001C000006880F308884FF0000080F3148862B65E
:1001D00061B6BFF34F8FBFF36F8F00DF00BF00BF6B
:1001E00008ED00E0DFF80C00016841F470010160E7
:1001F000704700BF88ED00E0EFF30980BFF36F8F19
:10020000134B1A681EF0100F08BF20ED108A20E96A
:10021000F04F106009B44FF0500080F31188BFF325
:100220004F8FBFF36F8F01F01BFF4FF0000080F383
:10023000118809BC19680868B0E8F04F1EF0100F6B
:1002400008BFB0EC108A80F30988BFF36F8F704746
:1002500018000020EFF30580704700000648804733
:1002600006480047FEE7FEE7FEE7FEE7FEE7FEE79B
:10027000FEE7FEE7FEE7FEE731110008890100080E
:100280002DE9F05F0546002092469B4688460646CB
:10029000814640241BE0284641464746224600F05E
:1002A00020F853465A46C01A914110D311461846B9
:1002B000224600F04AF82D1A67EB01084F46224605
:1002C0000120002100F041F817EB00094E41201EEB
:1002D000A4F10104DFDC484631462A464346BDE826
:1002E000F09F202A04DB203A21FA02F00021704717
:1002F00021FA02F3D040C2F120029140084319468E
:10030000704740EA01039B0703D009E008C9121FA8
:1003100008C0042AFAD203E011F8013B00F8013BBF
:10032000521EF9D27047D2B201E000F8012B491EEB
:10033000FBD270470022F6E710B513460A46044682
:100340001946FFF7F0FF204610BD202A04DB203AB3
:1003500000FA02F1002070479140C2F1200320FA18
:1003600003F3194390407047064C074D06E0E068E0
:1003700040F0010394E8070098471034AC42F6D3EC
:10038000FFF706FF282B0008482B0008FEE7704700
:100390002DE9F84FDFF864B100234FF0010C4FF066
:1003A000030A4FF00F090BF1040EA0E00CFA03F65C
:1003B000324072D04C68022C01D0122C0ED1DC08D5
:1003C00000EB8408D8F820405D07EF0E09FA07F526
:1003D000AC430D69BD402543C8F8205007685D0057
:1003E00091F804800AFA05F408F00308A74308FA14
:1003F00005F848EA0708C0F800804F68012F05D0CB
:10040000022F03D0112F01D0122F11D18768D1F8FC
:100410000C80A74308FA05F848EA0708C0F80880E6
:100420004768B7430E79C6F300169E403E434660C8
:10043000C668A6438C68AC403443C4604C68E40092
:1004400054D52F4CA56945F00105A561A46923F099
:10045000030504F0010400942A4C2E19B4689D078A
:100460002F0F09FA07F5AC43B0F1904F04D0264D99
:10047000A84203D1012512E0002510E0234DA84237
:1004800001D102250BE0224DA84201D1032506E04F
:10049000204DA84202D1042501E027E00525BD40FA
:1004A0002543B560DBF800405D464E689443F60393
:1004B00000D514432C60DEF8004075464E68944326
:1004C000B60300D514432C600C4D08352C684E68DB
:1004D0009443F60200D514432C60084D0C352C686B
:1004E0004E689443B60200D514432C605B1C0A6826
:1004F00032FA03F47FF45AAFBDE8F88F00040140EC
:1005000000100240000001400004004800080048BC
:10051000000C00480010004842690A4200D009045B
:10052000816170470AB18161704781627047000044
:100530000148806870470000080000200248816878
:10054000027811448160704708000020074810B508
:10055000016841F010010160032000F08BF80020D9
:1005600000F006F800F03EF8002010BD0020024028
:1005700000B5014687B00022192000F05BF8192071
:1005800000F04AF81348816941F400618161806993
:1005900005A900F400600690684600F021F900F01B
:1005A0003FF90D490D4AB0FBF1F10D48491E0260BB
:1005B000416040F2E7320021C0E90321816000F090
:1005C00064FC10B1012007B000BD054800F07AFCC2
:1005D000F9E700000010024040420F00002C0140EB
:1005E000900000200B4882B0816941F001018161D7
:1005F000816901F001010091C16941F08051C1613F
:10060000C069002200F0805000900F21901E02B0BF
:1006100000F010B800100240002809DB00F01F02B3
:10062000012191404009800000F1E020C0F8001154
:1006300070470000F0B40E4B1B680C46C3F3022356
:10064000C3F10705042D00D90425191D072901D27E
:10065000002300E0DB1E012606FA05F1491E2140B9
:1006600099409E40761E16403143F0BC00F0CDBD4F
:100670000CED00E0064900F0070208684FF6FF03A2
:10068000184040EA0220034A104308607047000007
:100690000CED00E00000FA052DE9F0470F460500DB
:1006A00069D04A4E306800F00700B84209D230687D
:1006B00020F0070038433060306800F00700B8428F
:1006C00059D12878424C800705D56068A96820F088
:1006D000F000084360602878C0073DD069680120B9
:1006E00001290DD0022923D05FF0020393FAA3F26F
:1006F000B2FA82F242F02002520904D0226803E0EA
:100700004FF40033F2E7626A93FAA3F3B3FA83F388
:1007100003F01F03984002422DD0606820F00300D0
:1007200008436060FFF704FF804641F288390CE01F
:100730004FF00073DAE700BFFFF7FAFEA0EB080105
:10074000494502D90320BDE8F0876068696800F078
:100750000C00B0EB810FEFD1306800F00700B84219
:100760000BD9306820F0070038433060306800F063
:100770000700B84201D00120E5E72878400705D5F9
:100780006068E96820F4E06008436060287800074A
:1007900006D56068296920F4605040EAC1006060B5
:1007A00000F056F86168F02292FAA2F201F0F0012E
:1007B000B2FA82F2D140074A515CC840064908604B
:1007C00006480068FFF7D4FE0020BCE70020024086
:1007D00000100240F42A0008140000200C00002041
:1007E0000F2202600C4A536803F00303436053680E
:1007F00003F0F0038360536803F4E063C36052685E
:100800004FF4E06303EAD20202610448006800F09A
:1008100007000860704700000010024000200240FE
:1008200008480949006849684FF4605292FAA2F2F8
:1008300001F46051B2FA82F2D140044A515CC840DE
:10084000704700001400002000100240042B000834
:10085000164A10B55168164801F00C03042B20D03D
:10086000082B1ED14FF4701494FAA4F401F4701301
:10087000B4FA84F4E3400F4CD26AE45C0F2393FA99
:10088000A3F302F00F02B3FA83F3DA40094B1033FB
:10089000C9039A5C06D500231946FFF7F1FCA0FBBB
:1008A000040110BD0448A4FB000110BD001002406B
:1008B00000127A00D42A000800093D002DE9F84F03
:1008C000050071D02878FC4EC0074FF0010425D0F8
:1008D00070686704C0F38100012807D07068C0F316
:1008E000810002281BD17068C00318D597FAA7F0C1
:1008F000B0FA80F040F02000400901D0306800E0FC
:10090000706A97FAA7F1B1FA81F101F01F0104FAB8
:1009100001F1084265D068680028D2D061E06868BB
:10092000B0F5803F0BD010B1B0F5A02F17D03068D4
:1009300020F480303060306820F4802002E030689D
:1009400040F480303060F06AA96820F00F0008435E
:10095000F062686820B3FFF7EBFD80460AE030687C
:1009600040F480203060EAE7FFF7E2FDA0EB0800EA
:10097000642871D897FAA7F0B0FA80F040F0200010
:10098000400901D0306800E0706A97FAA7F1B1FA27
:1009900081F101F01F0104FA01F10842E4D020E0E6
:1009A000FFF7C6FD804607E0C2E000BFFFF7C0FDCD
:1009B000A0EB08006428DCD897FAA7F0B0FA80F022
:1009C00040F02000400901D0306800E0706A97FADA
:1009D000A7F1B1FA81F101F01F0104FA01F1084217
:1009E000E4D12878DFF8D48280074FF0000A4FF076
:1009F000020730D570684FF0F80B10F00C0F07D0DD
:100A00007068C0F38100022827D17068C00324D425
:100A100097FAA7F0B0FA80F040F02000400901D02A
:100A2000306800E0706A97FAA7F1B1FA81F101F03D
:100A30001F0104FA01F1084202D02869012877D188
:100A400030689BFAABF220F0F8016869B2FA82F2E2
:100A50009040014331605AE064E1286988B394FA18
:100A6000A4F0B0FA80F048F82040FFF761FD81461D
:100A700006E000BFFFF75CFDA0EB090002289AD852
:100A800097FAA7F0B0FA80F040F02000400901D0BA
:100A9000306800E0706A97FAA7F1B1FA81F101F0CD
:100AA0001F0104FA01F10842E4D030689BFAABF26E
:100AB0006969B2FA82F220F0F80091400843306090
:100AC00025E0FFE794FAA4F0B0FA80F048F820A0FF
:100AD000FFF72EFD814605E0FFF72AFDA0EB090098
:100AE0000228CCD897FAA7F0B0FA80F040F02000A6
:100AF000400901D0306800E0706A97FAA7F1B1FAB6
:100B000081F101F01F0104FA01F10842E4D12878D3
:100B100000076CD5A869A8B394FAA4F0B0FA80F0E5
:100B200008EB8000C0F88044FFF702FD814607E033
:100B3000A4E100BFFFF7FCFCA0EB090002289ED84F
:100B400097FAA7F0B0FA80F040F06000B4EB501FC5
:100B500001D130680BE097FAA7F0B0FA80F040F0CE
:100B60006000B7EB501F01D1306A00E0706A97FA5D
:100B7000A7F1B1FA81F101F01F0104FA01F210426C
:100B8000D8D034E0FFE794FAA4F1B1FA81F108EB90
:100B90008101C1F880A4FFF7CBFC814606E000BFCD
:100BA000FFF7C6FCA0EB090002289AD897FAA7F035
:100BB000B0FA80F040F06000B4EB501F01D1306813
:100BC0000BE097FAA7F0B0FA80F040F06000B7EBC6
:100BD000501F01D1306A00E0706A97FAA7F1B1FAAC
:100BE00081F101F01F0104FA01F21042D8D12878F6
:100BF000400768D5F0694FF00009C00009D4F069DA
:100C000040F08050F061F0694FF0010900F0805031
:100C100000902B480168C90512D4016841F4807125
:100C20000160FFF785FC834606E000BFFFF780FC0C
:100C3000A0EB0B00642875D821480068C005F5D5E5
:100C4000E86801280AD008B1052811D0306A20F0E0
:100C500001003062306A20F0040002E0306A40F0A7
:100C600001003062E86868B3FFF762FC83460DE07C
:100C7000306A40F004003062F0E700BFFFF758FC34
:100C8000A0EB0B0141F2883081424BD897FAA7F0D4
:100C9000B0FA80F040F04000B4EB501F01D1306852
:100CA00013E097FAA7F0B0FA80F040F04000B7EBFD
:100CB000501F09D1306A08E0001002400000424293
:100CC000007000400CE040E0706A97FAA7F1B1FABA
:100CD00081F101F01F0104FA01F21042CED02DE0A3
:100CE000FFF726FC834607E0FFF722FCA0EB0B0191
:100CF00041F28830814215D897FAA7F0B0FA80F017
:100D000040F04000B4EB501F01D130680CE097FA7E
:100D1000A7F0B0FA80F040F04000B7EB501F02D1CE
:100D2000306A01E083E0706A97FAA7F1B1FA81F1C5
:100D300001F01F0104FA01F21042D5D1B9F1000F00
:100D400003D0F06920F08050F061E86980B37168E9
:100D5000C1F38101022977D04FF080714F00022842
:100D6000504609D091FAA1F1B1FA81F148F8210079
:100D7000FFF7DEFB05465DE0894691FAA1F1B1FA85
:100D800081F1C24648F82100FFF7D2FB804605E01A
:100D9000FFF7CEFBA0EB0800022848D897FAA7F08F
:100DA000B0FA80F040F02000400902D0306801E045
:100DB00066E0706A97FAA7F1B1FA81F101F01F01BC
:100DC00004FA01F10842E3D1D5E90810084371683B
:100DD00021F474110843706099FAA9F0B0FA80F018
:100DE0004AF82040FFF7A4FB054604E0FFF7A0FB0C
:100DF000401B02281BD897FAA7F0B0FA80F040F009
:100E00002000400901D0306800E0706A97FAA7F12D
:100E1000B1FA81F101F01F0104FA01F10842E5D0B5
:100E20002EE000BFFFF784FB401B022802D90320FD
:100E3000BDE8F88F97FAA7F0B0FA80F040F02000F4
:100E4000400902D0306801E00BE0706A97FAA7F120
:100E5000B1FA81F101F01F0104FA01F10842E1D178
:100E60000EE00128E4D070682A6A00F480319142D3
:100E700004D1696A00F47010884201D00120D7E7DC
:100E80000020D5E770477047704710B5040003D0C5
:100E900094F83D0010B107E0012010BD002084F857
:100EA0003C00204600F00CF8022084F83D00211D93
:100EB000206800F051F9012084F83D00002010BDA9
:100EC000704700000168CA6842F00102CA60016808
:100ED0008868064A1040062806D0B0F5803F03D047
:100EE000086840F00100086000207047070001001A
:100EF000704770B50446006801694FF00005C943AA
:100F0000890715D4C168C943890711D4E91E016155
:100F100001202077206880698007204602D0FFF7F3
:100F2000E7FF04E000F0A7F8204600F0A5F82577D9
:100F300020680169C943490717D4C168C9434907F3
:100F400013D46FF0040101610220207720688069CA
:100F500010F4407F204602D0FFF7CAFF04E000F003
:100F60008AF8204600F088F8257720680169C9438F
:100F7000090716D4C168C943090712D46FF00801E4
:100F80000161042020772068C0698007204602D0D4
:100F9000FFF7AEFF04E000F06EF8204600F06CF8BA
:100FA000257720680169C943C90617D4C168C943B8
:100FB000C90613D46FF01001016108202077206862
:100FC000C06910F4407F204602D0FFF791FF04E093
:100FD00000F051F8204600F04FF8257720680169AD
:100FE000C943C90708D1C168C943C90704D1891ECB
:100FF0000161204600F042F820680169C9430906F2
:1010000009D4C168C943090605D46FF080010161A4
:101010002046FFF738FF20680169C943C90509D494
:10102000C168C943090605D46FF480710161204687
:10103000FFF728FF20680169C943490609D4C16840
:10104000C943490605D46FF040010161204600F014
:101050001FF820680169C94389060BD4C168C943D8
:10106000890607D46FF0200101612046BDE8704079
:10107000FFF70ABF70BD7047704700000068034962
:10108000884201D1FFF75ABA70470000002C014096
:101090007047FEE7FEE77047064D4FF400744FF4CB
:1010A0007A7621462846FFF737FA304600F01EF9D7
:1010B000F7E700000010004810B5502080F31188B9
:1010C000BFF34F8FBFF36F8F01F03EFB18B10449A0
:1010D0004FF080500860002080F3118810BD0000A0
:1010E00004ED00E030B58FB028216846FFF722F903
:1010F00014210AA8FFF71EF902250120049000958B
:101100001020059000244FF4C010CDE90840079549
:101110006846FFF7D3FB0F200A90CDE90B540D94DE
:1011200001210AA80E94FFF7B7FA0FB030BD0000F6
:101130000548016841F47001016003494FF0006007
:10114000803908607047000088ED00E00148FFF733
:10115000D0BE0000900000202DE9F0430268234B30
:10116000234D244E244C4FF08049984207D04845E7
:1011700005D0A84203D0B04201D0A04203D122F052
:1011800070074A683A431D4FDFF874C0DFF8748077
:1011900098420DD048450BD0A84209D0B04207D0A4
:1011A000A04205D0B84203D0604501D0404503D1EC
:1011B00022F44075CA682A434D6922F080022A430E
:1011C00002608A68C2620A688262984207D0A042BE
:1011D00005D0B84203D0604501D0404501D109692E
:1011E000016301214161BDE8F0830000002C014052
:1011F000000400400008004000340140004001406D
:101200000044014000480140FEE70907090E00289C
:1012100004DB00F1E02080F80014704700F00F00BC
:1012200000F1E02080F8141D704702E008C8121F8A
:1012300008C1002AFAD170477047002001E001C1BF
:10124000121F002AFBD17047012000F04FF8FBE786
:1012500098B0FFF77BF9FFF745FF142112A8FFF7BD
:1012600069F81C48416941F40011416140691A4D17
:1012700000F400104FF440741790002221462846D5
:10128000FFF750F9012000211294CDE913011591C7
:1012900012A92846FFF77CF800F042F824220F49F3
:1012A0006846FFF72EF86A4600210D4800F074F8F2
:1012B0000C4C0A4924222060243109A8FFF721F8A8
:1012C00009AA0021084800F067F8606000F044F8BF
:1012D000FEE7000000100240001000488C2A0008C1
:1012E00099100008000000204912000810B5EFF323
:1012F000058149B9EFF3108131B90849096802291C
:1013000005D1EFF3118111B16FF0050403E0002462
:1013100008B100F0F1FD204610BD0000680000207B
:10132000EFF3058058B9EFF3108040B90949086818
:10133000022801D030B109E0EFF3118030B16FF035
:101340000500704701200860002070474FF0FF3013
:10135000704700006800002010B5EFF3058060B909
:10136000EFF3108048B90B490868022802D0012821
:1013700006D00BE0EFF3118040B16FF0050010BD17
:101380000220086000F020FE002010BD4FF0FF306A
:1013900010BD000068000020F0B585B04FEA0103E1
:1013A0004FF00004EFF305810394A1BBEFF310812C
:1013B00089BB21490968022902D1EFF3118151BB90
:1013C00048B3802618218DF8104004AD42B3176849
:1013D00007B13D4697691FB139467F1E382F02D2AB
:1013E0001779FF0702D0002005B0F0BD576907B19B
:1013F000BE08D2F808C0BCF1000F0DD0D4685C2C38
:1014000018D312693AB137B18DE806103246294631
:1014100001F05BF903900DE0D7685FB912694AB932
:1014200003AACDE90012B2B2294601F021F9012840
:1014300000D003940398D7E7680000202DE9F0411D
:10144000134C0F46054666692068001D00F01CFC21
:10145000681C07D137B12168BDE8F0410D48091D6E
:1014600000F06ABC20683544B5424560216805D269
:10147000A068BDE8F041091D00F046BC6068091D88
:1014800000F042FC206B854200D22563BDE8F0816C
:1014900018000020C00500202DE9F041054600F0AD
:1014A00057FC2D4C2069401C206120682B4F10B147
:1014B000E06930B32BE025602069012827D10026A0
:1014C00006EB860007EB800000F010FC761C382E3F
:1014D000F6D3234800F00AFC2148143000F006FC43
:1014E0001F48283000F002FC1D483C3000F0FEFB95
:1014F0001B48503000F0FAFB194860601430A060BF
:1015000005E02068E96AC06A884200D82560E06A80
:10151000401CE0626864E86AA169884200D9A06161
:1015200000EB800007EB8000291D00F005FC00F0B7
:101530002FFCE06900280CD02068E96AC06A884264
:1015400007D208494FF080500860BFF34F8FBFF3B8
:101550006F8FBDE8F081000018000020100100200E
:101560007005002004ED00E038B500F0F1FB104CF0
:10157000A068C8B90F4800F0B9FB0E48143000F05D
:10158000B5FB0C482060143060600A4B0020283303
:10159000009003F1500210210A2000F00DFEA0601F
:1015A00010B105A100F072FCBDE8384000F0F0BBBE
:1015B00054000020D4050020546D7251000000003A
:1015C00030B4026C0B46002A0BD0C1681144C160D4
:1015D0004468A14201D30168C16030BC1846FEF7DF
:1015E00090BE30BC70472DE9F041856B174604462C
:1015F0000026026C82B1C7B1E068FEF782FEE168A6
:10160000206C091AE1602268914202D26168081ACE
:10161000E060022F16D017E02068A8B9606801F0DA
:10162000F7F80646002060600EE0A068FEF769FE4D
:10163000216CA0680844A0606168884204D32068D7
:10164000A06001E005B16D1E6D1CA5633046BDE8CC
:10165000F08110B5044690F8590058B101280CD01B
:1016600002280FD0502080F31188BFF34F8FBFF3B3
:101670006F8FFEE7206B00F09FFB2046BDE8104017
:1016800000F09ABB10BD000010484FF440614207C3
:1016900006D0C01D0D4920F00700411AC1F5406178
:1016A0000B4A00230144C2E900030839103A21F033
:1016B000070111604B600B600B1AC0E900139360C7
:1016C0004FF000405360D06070470000A40D002030
:1016D0007C000020154E164CA6F29C474FF0805817
:1016E000DFF8509012E000BF00F032FBF068C568F0
:1016F000281D00F0C9FA2069401E2061E068401EE4
:10170000E06000F045FB2846FFF7A3FFE0680028F3
:10171000EAD13868012805D9C9F80080BFF34F8F96
:10172000BFF36F8F00F0DAFAF0E70000AC0500209D
:101730001800002004ED00E070B51D46049C51B176
:10174000C4F80020C4E90F010121204600F068FD23
:1017500084F84C5070BD2460F4E72DE9F0470E4644
:10176000DDE909841746824691009946089DA52225
:10177000206BFEF7D8FD6FF00301206B01EB8701B2
:10178000084420F00707780707D0502080F311881D
:10179000BFF34F8FBFF36F8FFEE72218315C82F8E3
:1017A0003410315C11B1401C1028F6D3002684F8A7
:1017B0004360382D00D33725E562C4E91356201D58
:1017C00000F09FFA04F1180000F09BFA2461C5F1C3
:1017D00038006462A061666584F858604A465146E4
:1017E000384600F03BFA2060B8F1000F01D0C8F88D
:1017F0000040BDE8F087000030B5114900E0114617
:101800000A688242FBD34B685C18844203D140686B
:1018100018444860084643681C18944209D1084C93
:10182000103C2468A24209D052681A4442600A68F7
:1018300012680260814200D0086030BD0460F9E7A0
:101840007C00002070B5002441600B4D0061914286
:1018500006D8D11A8269914206D2011D686807E054
:101860009A4203D2994201D3012403E0011D286862
:1018700000F04AFA204670BD5400002010B504461E
:1018800000F066FAA06B28B15FF0000400F080FA67
:10189000204610BD0124F9E730B589B0304D55E040
:1018A0000498002806DADDE90601059A90470498B5
:1018B00000284BDB069C606910B1201D00F0E4F9A4
:1018C00002A800F0B9F8024604980A283ED2DFE8E0
:1018D00000F00505053D263705053D260598A1695B
:1018E000034601442046FFF7ADFF00B3616A20467E
:1018F0008847E069012829D1002000900598A16956
:10190000002342181946204601F08CF878B950207F
:1019100080F31188BFF34F8FBFF36F8FFEE70598F9
:10192000A06128B1811813462046FFF78BFF0DE018
:10193000502080F31188BFF34F8FBFF36F8FFEE706
:1019400094F82C0010B9204600F036FA002204A9C1
:10195000A86800F0B7FD0028A2D109B030BD000092
:10196000540000202DE9FC410F46054600F070FBB5
:1019700001A800F061F80446019818B100F0C0FF1A
:10198000BDE8FC81224EAFB170680068A8B30027A3
:10199000291B3A46B06800F08DFA00F0B1FF00282C
:1019A000EED11C494FF080500860BFF34F8FBFF35A
:1019B0006F8FE5E7A542EBD800F0A2FF306827461D
:1019C000C068C468201D00F05FF9E069012810D1EB
:1019D000A0692B4641193A462046FFF733FF40B134
:1019E00000200346014600902A46204601F01AF8DE
:1019F00020B1616A20468847C2E707E0502080F3A3
:101A00001188BFF34F8FBFF36F8FFEE70127BFE74A
:101A10005400002004ED00E006484168096829B13F
:101A20004168C968C9684968016370474FF0FF3170
:101A3000FAE700001800002070B5054600F07EFEB1
:101A4000064E04463069844203D200F009F80120B2
:101A500000E0002028602046346170BD5400002062
:101A6000F8B5194D1FE0C068C4680668201D00F075
:101A70000BF9616A20468847E069012813D1A06903
:101A80003044B04206D924616060211D286800F00E
:101A90003BF908E00020034601460090324620460C
:101AA00000F0C0FF38B1286801680029DBD16968FF
:101AB000C5E90010F8BD502080F31188BFF34F8FA7
:101AC000BFF36F8FFEE70000540000200848406815
:101AD000401C4FF0500080F3118804D0BFF34F8FAB
:101AE000BFF36F8FFEE7BFF34F8FBFF36F8FFEE73C
:101AF00084000020074C2068016841B1C0680021C3
:101B0000D0F80000FFF72EFFFFF7C6FEF3E7012134
:101B10000020F7E7540000202DE9F041044600F0D2
:101B200017F994F9455004F1240609E0606A48B1B8
:101B3000304600F0ADFE08B100F00CFA6D1E6DB23B
:101B4000002DF3DC4FF0FF3684F8456000F020F9FB
:101B500000F0FEF894F9445004F1100709E0206900
:101B600048B1384600F094FE08B100F0F3F96D1E5C
:101B70006DB2002DF3DC84F84460BDE8F04100F064
:101B800007B900002DE9F0410546002700F060FA92
:101B9000314E306808B9FFF777FDF06805424BD148
:101BA000C5B3083568070ED005F00700C0F108007E
:101BB0000544680707D0502080F31188BFF34F8F8A
:101BC000BFF36F8FFEE72DB37068854234D822488B
:101BD000103001460C6801E020460C466168A942BD
:101BE00002D221680029F7D131688C4224D00768DD
:101BF0002168016060680837411B10290FD96019FE
:101C0000420708D0502080F31188BFF34F8FBFF3F5
:101C10006F8FFEE710E041606560FFF7EDFD6168E2
:101C20007068401A7060B268904200D2B060F0688C
:101C300001430020C4E9000100F062FE780707D0EC
:101C4000502080F31188BFF34F8FBFF36F8FFEE7F3
:101C50003846BDE8F08100006C00002010B5031F7D
:101C60004FF080741C601B1F21F001011960191FC7
:101C7000044B0B6014390A60091F6FF002024438EC
:101C80000A6010BDCD1A0008D0E9013201699A60DE
:101C9000D0E901235A604A68824201D182684A60D1
:101CA000002202610868401E086008687047000052
:101CB000034B036003F15C000860802010607047F4
:101CC000EC060020044B036003F15C0008604FF455
:101CD0008070106070470000480900204FF4807148
:101CE0000148FEF719BC00000010004800F108018F
:101CF0004FF0FF32C0E90112C160016100210160B3
:101D0000704700210161704730B50B685A1C02D042
:101D100000F1080202E0026904E0224654682568E6
:101D20009D42FAD953684B6099608A60516008619E
:101D30000168491C016030BD42684A6093688B604D
:101D400093685960916008610168491C016070479F
:101D5000502080F31188BFF34F8FBFF36F8F0A4974
:101D60004868401C486001280CD10848006810F001
:101D7000FF0F07D0502080F31188BFF34F8FBFF3C0
:101D80006F8FFEE7704700008400002004ED00E044
:101D90000849486828B1401E486001D180F3118885
:101DA0007047502080F31188BFF34F8FBFF36F8FC0
:101DB000FEE700008400002070B5002827D0144DF5
:101DC000A0F108046168E868014207D1502080F35F
:101DD0001188BFF34F8FBFF36F8FFEE722683AB1D0
:101DE000502080F31188BFF34F8FBFF36F8FFEE752
:101DF0008143616000F02CF960686968084468609C
:101E00002046FFF7F9FCBDE8704000F079BD70BDD9
:101E10006C0000204FF0E020002101618161054944
:101E20004FF47A720968B1FBF2F1491E4161072152
:101E3000016170471400002010B5FEF70BFA11493C
:101E400010280ED300F1E02090F8F0030A789042B9
:101E500007D2502080F31188BFF34F8FBFF36F8FED
:101E6000FEE709480068896800F4E060884207D905
:101E7000502080F31188BFF34F8FBFF36F8FFEE7C1
:101E800010BD0000840000200CED00E010B5084BF0
:101E9000002200BF53F832401CB1521C082AF9D36B
:101EA00010BD43F8321003EBC201486010BD0000C2
:101EB000D000002070B515460E460446FFF748FFD7
:101EC00094F944100020491C01D184F8440094F98D
:101ED0004510491C01D184F84500FFF759FFA06B5C
:101EE00028B92A46314604F1240000F051F8204672
:101EF000BDE87040FFF710BE10B5020014D00F48C7
:101F0000806B38B1502080F31188BFF34F8FBFF33F
:101F10006F8FFEE700F09CF800211046FFF78EFA65
:101F200000F0EEFC002807D105494FF08050086012
:101F3000BFF34F8FBFF36F8F10BD0000180000205C
:101F400004ED00E002498A6A026049694160704715
:101F50001800002001490120486270471800002045
:101F600010B50C4650B1094909681831FFF7CCFE8D
:101F70002046BDE810400121FFF760BA502080F3F1
:101F80001188BFF34F8FBFF36F8FFEE7180000205B
:101F900070B514460D4668B10A4909681831FFF753
:101FA000CBFE0CB14FF0FF3521462846BDE870400E
:101FB000FFF744BA502080F31188BFF34F8FBFF36F
:101FC0006F8FFEE71800002030B587B0002403941F
:101FD00005AA04A903A80494FFF76AFEDDE903013A
:101FE0000094CDE90110002315A11748059A00F0CF
:101FF0006CFB164D002868631FD000F0E3FC01283D
:1020000009D0401C19D1502080F31188BFF34F8FA5
:10201000BFF36F8FFEE7502080F31188BFF34F8F1F
:10202000BFF36F8F4FF0FF3028630120E8616C61D0
:1020300007B0BDE8304000F045B807B030BD000043
:1020400049444C4500000000D51600081800002047
:102050000248816B491C8163704700001800002012
:10206000164810B5816B11B10121416210BD0021EC
:1020700041628169124A01E0B9B1491E01EB810355
:1020800052F82330002BF7D001EB810302EB8302DF
:1020900002F1080453685B685360A34201D15B6896
:1020A0005360DA680260816110BD502080F31188AE
:1020B000BFF34F8FBFF36F8FFEE7000018000020C3
:1020C000100100201CB537480168374A914207D1FA
:1020D000502080F31188BFF34F8FBFF36F8FFEE75F
:1020E00000683149491E884207D1502080F3118889
:1020F000BFF34F8FBFF36F8FFEE72C490878019035
:10210000FF20087008788DF800009DF800009DF809
:10211000002000F0F000904207D0502080F311889A
:10212000BFF34F8FBFF36F8FFEE79DF80000204B8A
:1021300000F0500018700720986005E09DF800201E
:1021400052008DF80020401E9DF800201206F5D4A4
:102150009860032807D0502080F31188BFF34F8F79
:10216000BFF36F8FFEE74FF44070986001980870DE
:102170000C482030016841F470010160016841F0B1
:1021800070410160FFF746FE00205860FEF72AF814
:102190000848016841F040410160FEF70FF8002057
:1021A0001CBD000000ED00E071C20F4100E400E042
:1021B0008400002034EF00E038B5049D18B153B11D
:1021C000CAB181B120E0502080F31188BFF34F8F56
:1021D000BFF36F8FFEE7502080F31188BFF34F8F5E
:1021E000BFF36F8FFEE7502080F31188BFF34F8F4E
:1021F000BFF36F8FFEE739B1502080F31188BFF332
:102200004F8FBFF36F8FFEE750241C46012384F8E5
:1022100046302B460094FFF78FFA204638BD000069
:1022200070B50D46040025D0FFF792FDD4E90F20CC
:10223000216802FB001161600021A1632168A16097
:102240000A46D4E90F01401E00FB0121E16021464E
:102250004FF0FF3001F8440F487004F110008DB1C9
:10226000FFF744FD04F12400FFF740FDFFF790FD68
:10227000012070BD502080F31188BFF34F8FBFF352
:102280006F8FFEE721690029F0D000F001FB0028E4
:10229000ECD004494FF080500860BFF34F8FBFF37C
:1022A0006F8FE3E704ED00E02DE9FF4782B01D46A4
:1022B0008A464FF00008040003D0BAF1000F08D09E
:1022C00011E0502080F31188BFF34F8FBFF36F8F61
:1022D000FEE7206C38B1502080F31188BFF34F8F98
:1022E000BFF36F8FFEE7022D0AD1E06B012807D004
:1022F000502080F31188BFF34F8FBFF36F8FFEE73D
:1023000000F00EFA3F4F4FF000094FF0805648B9E9
:10231000049838B1502080F31188BFF34F8FBFF37A
:102320006F8FFEE7FFF714FDA06BE16B884207D3C8
:10233000022D05D00498D0B1B8F1000F1AD01EE0DC
:102340002A4651462046FFF74EF9616A19B104F159
:10235000240000F09DFA20B13E60BFF34F8FBFF321
:102360006F8FFFF715FD012006B0BDE8F087FFF77E
:102370000FFD22E06846FFF7E5FD4FF00108FFF78B
:1023800007FDFFF765FEFFF7E3FC94F94400401CEE
:1023900001D184F8449094F94500401C01D184F89F
:1023A0004590FFF7F5FC04A9684600F027F930B125
:1023B0002046FFF7B1FB00F0A3FA0020D4E7FFF7B7
:1023C000C7FCA06BE16B884213D1FFF7E1FC04F17D
:1023D00010000499FFF7C4FD2046FFF79DFB00F0B5
:1023E0008FFA00289ED13E60BFF34F8FBFF36F8FEF
:1023F00098E7FFF7CDFC2046FFF78EFB00F080FA50
:1024000090E7000004ED00E02DE9F0471F469046FC
:102410008946040003D0B9F1000F08D011E0502024
:1024200080F31188BFF34F8FBFF36F8FFEE7206CEF
:1024300038B1502080F31188BFF34F8FBFF36F8FF7
:10244000FEE7022F0AD1E06B012807D0502080F36D
:102450001188BFF34F8FBFF36F8FFEE7FFF7ECFCE0
:102460005020EFF3118680F31188BFF34F8FBFF335
:102470006F8FA06BE16B884206D3022F04D000203F
:1024800086F31188BDE8F08794F945503A464946ED
:102490002046FFF7A8F8681C04D06D1C84F845504E
:1024A0000120EDE7606A0028FAD004F1240000F072
:1024B000EFF90028F4D0B8F1000FF1D00121C8F8ED
:1024C0000010EDE72DE9F747002683B08A460400A7
:1024D00003D0BAF1000F08D011E0502080F311882A
:1024E000BFF34F8FBFF36F8FFEE7206C38B15020E2
:1024F00080F31188BFF34F8FBFF36F8FFEE700F0BB
:102500000FF9DFF8F4804FF000094FF0805748B919
:10251000059838B1502080F31188BFF34F8FBFF377
:102520006F8FFEE7FFF714FCA56BC5B1514620463F
:10253000FFF746F86D1EA563206950B104F1100045
:1025400000F0A6F928B1C8F80070BFF34F8FBFF3B1
:102550006F8FFFF71DFC012006B0BDE8F0870598DE
:1025600008B11EB106E0FFF713FC27E06846FFF74D
:10257000E9FC0126FFF70CFCFFF76AFDFFF7E8FB1B
:1025800094F94400401C01D184F8449094F945002A
:10259000401C01D184F84590FFF7FAFB05A9684675
:1025A00000F02CF8002820460AD0FFF7B5FA00F01A
:1025B000A7F92046FFF762F90028B3D00020CBE747
:1025C000FFF75CF990B104F124000599FFF7C8FC0E
:1025D0002046FFF7A1FA00F093F90028A2D1C8F82D
:1025E0000070BFF34F8FBFF36F8F9BE72046FFF75D
:1025F00093FA00F085F995E704ED00E02DE9F0414C
:102600000C46050011D0C4B1FFF7A2FB174B5A6965
:102610006E682068911B471C17D02F689B6A9F42E9
:1026200019D0964217D8012410E0502080F3118869
:10263000BFF34F8FBFF36F8FFEE7502080F31188F9
:10264000BFF34F8FBFF36F8FFEE70024FFF7A0FBB0
:102650002046BDE8F081884205D9401A206028460E
:10266000FFF770FCF1E700202060DCE71800002095
:102670002DE9FF5F8346DDE90E87994616468A46B7
:102680009000FFF77FFA05001CD05C20FFF77AFA74
:10269000040014D00020256384F85900CDE90240DD
:1026A000CDE900874B46324651465846FFF755F86C
:1026B0002046FEF7F1FE012004B0BDE8F09F284659
:1026C000FFF77AFB4FF0FF30F6E7F0B585B0DDE9B4
:1026D0000B640A9DA6B1DCB15C2700972663022635
:1026E00084F85960002604AFCDE90246CDE90057D1
:1026F000FFF733F82046FEF7CFFE049805B0F0BD93
:10270000502080F31188BFF34F8FBFF36F8FFEE728
:10271000502080F31188BFF34F8FBFF36F8FFEE718
:102720000548C16919B1806B18B1002070470120BC
:1027300070470220704700001800002001484069DF
:1027400070470000180000202DE9F0412E4C0027B2
:10275000A06B40B1206A401C2062606A00B1012772
:102760003846BDE8F0816669761C666113D1606801
:10277000006838B1502080F31188BFF34F8FBFF34A
:102780006F8FFEE76068A1686160A060A06A401C6E
:10279000A062FFF741F9206BDFF87080864209D311
:1027A0006068006880B16068C068C5686868864213
:1027B0000DD220632068C06A00EB800158F8210028
:1027C0000128CAD90127C8E74FF0FF30F1E7281DDB
:1027D000FFF75AFAA86A18B105F11800FFF754FA82
:1027E000E86AA169884200D9A06100EB800108EB8A
:1027F0008100291DFFF7A0FAE86A2168C96A8842AA
:10280000CED30127CCE700001800002010010020E3
:1028100070B504004FF0000133D01B4D286884428E
:1028200007D0502080F31188BFF34F8FBFF36F8F15
:10283000FEE7206D38B1401E2065E36CE26A9A42E3
:102840001FD040B11DE0502080F31188BFF34F8F9F
:10285000BFF36F8FFEE7201DFFF716FAE06CE06212
:10286000C0F13800A061E06AA969884200D9A86176
:10287000064900EB800001EB8000211DFFF75CFAA8
:102880000121084670BD0000180000201001002042
:1028900070B5C068C46854B104F118000646FFF76B
:1028A000F3F9144DA86B50B13146134815E0502090
:1028B00080F31188BFF34F8FBFF36F8FFEE7201DAA
:1028C000FFF7E2F9E06AA969884200D9A8610B49DB
:1028D00000EB800001EB8000211DFFF72DFAE06A7C
:1028E0002968C96A884202D90120686270BD002047
:1028F00070BD000018000020980500201001002085
:102900002DE9F0472C4D00242746A86B38B1FFF77E
:102910001FFAA86B401EA863A86B40B146E0502088
:1029200080F31188BFF34F8FBFF36F8FFEE72969E4
:10293000224E0120D1B3A6F5916980463068E0B1FE
:10294000F068C46804F11800FFF79EF9201DFFF736
:102950009BF9E06AA969884200D9A86100EB80016F
:1029600009EB8100211DFFF7E7F9E06A2968C96AD0
:102970008842E3D3C5F82480E0E70CB1FFF74CF8B8
:102980002C6A4CB14FEA0806FFF7DEFE00B16E621A
:10299000641EF9D100202862686A38B1084901270D
:1029A00038070860BFF34F8FBFF36F8FFFF7F0F961
:1029B0003846BDE8F0870000180000209805002088
:1029C00004ED00E010B586B0FEF7CEFD114CA06816
:1029D000B8B100200390049005AA04A903A8FFF74A
:1029E00071F9DDE9032102208DE8070000230AA127
:1029F0000B48059AFFF769FEE06010B106B00120B0
:102A000010BD502080F31188BFF34F8FBFF36F8F3D
:102A1000FEE7000054000020546D722053766300DE
:102A2000F51A00082DE9FF411E46134602000A9DD3
:102A30004FF0000016D0144CA768002F0FD0CDE93E
:102A400000130292062917DAFFF76AFE02284FF0F8
:102A500000030FD000226946A068FFF725FC04B0F0
:102A6000BDE8F081502080F31188BFF34F8FBFF392
:102A70006F8FFEE72A46EEE7002332466946384666
:102A8000FFF7C2FCEBE70000540000201C2B0008FD
:102A90000000000000000000000000000000000036
:102AA000800000001800000000000000000000008E
:102AB0000C2B0008000000000000000000000000D7
:102AC000000000008000000008000000000000007E
:102AD0000000000002030405060708090A0B0C0D9C
:102AE0000E0F10100102030405060708090A0B0C5B
:102AF0000D0E0F1000000000000000000102030492
:102B00000607080900000000010203044C65644345
:102B10006F6E74726F6C6C6572546100646566618F
:102B2000756C745461736B00482B00080000002022
:102B3000900000002A120008D82B00089000002006
:102B4000181D00003A1200080000000000000000FC
:102B500001000000100000000000000000127A00D8
:102B60000000000000000000000000000000000065
:102B70000000000000000000000000000000000055
:102B80000000000000000000000000000000000045
:102B90000000000000000000000000000000000035
:102BA0000000000000000000000000000000000025
:102BB0000000000000000000000000000000000015
:102BC0000000000000000000000000000000000005
:082BD000AAAAAAAA0000000055
:040000050800018965
:00000001FF
