:020000040800F2
:10000000C81A00205D020008510C00084D0C0008C1
:100010004F0C00088D030008E10C000800000000F0
:100020000000000000000000000000009D0100082A
:100030008F03000800000000F90100085B0C0008B5
:1000400077020008770200087702000877020008AC
:10005000770200087702000877020008770200089C
:10006000770200087702000877020008770200088C
:10007000770200087702000877020008770200087C
:10008000770200087702000877020008770200086C
:10009000770200087702000877020008770200085C
:1000A000770200087702000877020008770200084C
:1000B000770200087702000877020008770200083C
:1000C000770200087702000877020008770200082C
:1000D000770200087702000877020008770200081C
:1000E000770200087702000877020008770200080C
:1000F00077020008770200087702000877020008FC
:10010000000000000000000000000000770200086E
:1001100077020008770200087702000877020008DB
:1001200077020008770200087702000877020008CB
:1001300077020008770200080000000000000000BD
:10014000770200087702000877020008000000002C
:10015000000000000000000000000000000000009F
:10016000000000000000000077020008770200088D
:1001700077020008000000000000000000000000FE
:100180000000000077020008DFF80CD000F0ECF867
:1001900000480047210D0008C81A00202C4B1968A0
:1001A0000868B0E8F04F80F30988BFF36F8F4FF015
:1001B000000080F3118870470000000008480068C4
:1001C000006880F308884FF0000080F3148862B65E
:1001D00061B6BFF34F8FBFF36F8F00DF00BF00BF6B
:1001E00008ED00E0DFF80C00016841F470010160E7
:1001F000704700BF88ED00E0EFF30980BFF36F8F19
:10020000134B1A681EF0100F08BF20ED108A20E96A
:10021000F04F106009B44FF0500080F31188BFF325
:100220004F8FBFF36F8F01F0E1FC4FF0000080F3C0
:10023000118809BC19680868B0E8F04F1EF0100F6B
:1002400008BFB0EC108A80F30988BFF36F8F704746
:100250003C000020EFF3058070470000064880470F
:1002600006480047FEE7FEE7FEE7FEE7FEE7FEE79B
:10027000FEE7FEE7FEE7FEE7C50C0008890100087F
:100280002DE9F05F0546002092469B4688460646CB
:10029000814640241BE0284641464746224600F05E
:1002A00020F853465A46C01A914110D311461846B9
:1002B000224600F04AF82D1A67EB01084F46224605
:1002C0000120002100F041F817EB00094E41201EEB
:1002D000A4F10104DFDC484631462A464346BDE826
:1002E000F09F202A04DB203A21FA02F00021704717
:1002F00021FA02F3D040C2F120029140084319468E
:10030000704740EA01039B0703D009E008C9121FA8
:1003100008C0042AFAD203E011F8013B00F8013BBF
:10032000521EF9D27047D2B201E000F8012B491EEB
:10033000FBD270470022F6E710B513460A46044682
:100340001946FFF7F0FF204610BD202A04DB203AB3
:1003500000FA02F1002070479140C2F1200320FA18
:1003600003F3194390407047064C074D06E0E068E0
:1003700040F0010394E8070098471034AC42F6D3EC
:10038000FFF706FF5828000878280008FEE77047A6
:1003900001488068704700002C00002002488168F6
:1003A00002781144816070472C000020074810B586
:1003B000016841F010010160032000F063F80F2094
:1003C00000F006F800F024F8002010BD00200240E4
:1003D00070B50D4D04464FF47A712878B1FBF0F0FA
:1003E0000A490968B1FBF0F000F01CFC48B9102C78
:1003F00007D200222146501E00F024F800206C6035
:1004000070BD012070BD00002C00002038000020CD
:100410000B4882B0816941F001018161816901F07D
:1004200001010091C16941F08051C161C0690022A0
:1004300000F0805000900F21901E02B000F002B832
:1004400000100240F0B40E4B1B680C46C3F30223AD
:10045000C3F10705042D00D90425191D072901D270
:10046000002300E0DB1E012606FA05F1491E2140AB
:1004700099409E40761E16403143F0BC00F031BCDE
:100480000CED00E0064900F0070208684FF6FF0394
:10049000184040EA0220034A1043086070470000F9
:1004A0000CED00E00000FA052DE9F0470F460500CD
:1004B00069D04A4E306800F00700B84209D230686F
:1004C00020F0070038433060306800F00700B84281
:1004D00059D12878424C800705D56068A96820F07A
:1004E000F000084360602878C0073DD069680120AB
:1004F00001290DD0022923D05FF0020393FAA3F261
:10050000B2FA82F242F02002520904D0226803E0DB
:100510004FF40033F2E7626A93FAA3F3B3FA83F37A
:1005200003F01F03984002422DD0606820F00300C2
:1005300008436060FFF72CFF804641F288390CE0E9
:100540004FF00073DAE700BFFFF722FFA0EB0801CE
:10055000494502D90320BDE8F0876068696800F06A
:100560000C00B0EB810FEFD1306800F00700B8420B
:100570000BD9306820F0070038433060306800F055
:100580000700B84201D00120E5E72878400705D5EB
:100590006068E96820F4E06008436060287800073C
:1005A00006D56068296920F4605040EAC1006060A7
:1005B00000F01EF86168F02292FAA2F201F0F00158
:1005C000B2FA82F2D140074A515CC840064908603D
:1005D00006480068FFF7FCFE0020BCE70020024050
:1005E000001002403C2800083800002030000020A5
:1005F000164A10B55168164801F00C03042B20D0A0
:10060000082B1ED14FF4701494FAA4F401F4701363
:10061000B4FA84F4E3400F4CD26AE45C0F2393FAFB
:10062000A3F302F00F02B3FA83F3DA40094B10335D
:10063000C9039A5C06D500231946FFF721FEA0FBEB
:10064000040110BD0448A4FB000110BD00100240CD
:1006500000127A001C28000800093D002DE9F84F1F
:10066000050071D02878FC4EC0074FF0010425D05A
:1006700070686704C0F38100012807D07068C0F378
:10068000810002281BD17068C00318D597FAA7F023
:10069000B0FA80F040F02000400901D0306800E05E
:1006A000706A97FAA7F1B1FA81F101F01F0104FA1B
:1006B00001F1084265D068680028D2D061E068681E
:1006C000B0F5803F0BD010B1B0F5A02F17D0306837
:1006D00020F480303060306820F4802002E0306800
:1006E00040F480303060F06AA96820F00F000843C1
:1006F000F062686820B3FFF74BFE80460AE030687E
:1007000040F480203060EAE7FFF742FEA0EB0800EB
:10071000642871D897FAA7F0B0FA80F040F0200072
:10072000400901D0306800E0706A97FAA7F1B1FA89
:1007300081F101F01F0104FA01F10842E4D020E048
:10074000FFF726FE804607E0C2E000BFFFF720FE6D
:10075000A0EB08006428DCD897FAA7F0B0FA80F084
:1007600040F02000400901D0306800E0706A97FA3C
:10077000A7F1B1FA81F101F01F0104FA01F1084279
:10078000E4D12878DFF8D48280074FF0000A4FF0D8
:10079000020730D570684FF0F80B10F00C0F07D03F
:1007A0007068C0F38100022827D17068C00324D488
:1007B00097FAA7F0B0FA80F040F02000400901D08D
:1007C000306800E0706A97FAA7F1B1FA81F101F0A0
:1007D0001F0104FA01F1084202D02869012877D1EB
:1007E00030689BFAABF220F0F8016869B2FA82F245
:1007F0009040014331605AE064E1286988B394FA7B
:10080000A4F0B0FA80F048F82040FFF7C1FD81461F
:1008100006E000BFFFF7BCFDA0EB090002289AD854
:1008200097FAA7F0B0FA80F040F02000400901D01C
:10083000306800E0706A97FAA7F1B1FA81F101F02F
:100840001F0104FA01F10842E4D030689BFAABF2D0
:100850006969B2FA82F220F0F800914008433060F2
:1008600025E0FFE794FAA4F0B0FA80F048F820A061
:10087000FFF78EFD814605E0FFF78AFDA0EB09003A
:100880000228CCD897FAA7F0B0FA80F040F0200008
:10089000400901D0306800E0706A97FAA7F1B1FA18
:1008A00081F101F01F0104FA01F10842E4D1287836
:1008B00000076CD5A869A8B394FAA4F0B0FA80F048
:1008C00008EB8000C0F88044FFF762FD814607E036
:1008D000A4E100BFFFF75CFDA0EB090002289ED851
:1008E00097FAA7F0B0FA80F040F06000B4EB501F28
:1008F00001D130680BE097FAA7F0B0FA80F040F031
:100900006000B7EB501F01D1306A00E0706A97FABF
:10091000A7F1B1FA81F101F01F0104FA01F21042CE
:10092000D8D034E0FFE794FAA4F1B1FA81F108EBF2
:100930008101C1F880A4FFF72BFD814606E000BFCE
:10094000FFF726FDA0EB090002289AD897FAA7F036
:10095000B0FA80F040F06000B4EB501F01D1306875
:100960000BE097FAA7F0B0FA80F040F06000B7EB28
:10097000501F01D1306A00E0706A97FAA7F1B1FA0E
:1009800081F101F01F0104FA01F21042D8D1287858
:10099000400768D5F0694FF00009C00009D4F0693C
:1009A00040F08050F061F0694FF0010900F0805094
:1009B00000902B480168C90512D4016841F4807188
:1009C0000160FFF7E5FC834606E000BFFFF7E0FCAF
:1009D000A0EB0B00642875D821480068C005F5D548
:1009E000E86801280AD008B1052811D0306A20F043
:1009F00001003062306A20F0040002E0306A40F00A
:100A000001003062E86868B3FFF7C2FC83460DE07E
:100A1000306A40F004003062F0E700BFFFF7B8FC36
:100A2000A0EB0B0141F2883081424BD897FAA7F036
:100A3000B0FA80F040F04000B4EB501F01D13068B4
:100A400013E097FAA7F0B0FA80F040F04000B7EB5F
:100A5000501F09D1306A08E00010024000004242F5
:100A6000007000400CE040E0706A97FAA7F1B1FA1C
:100A700081F101F01F0104FA01F21042CED02DE005
:100A8000FFF786FC834607E0FFF782FCA0EB0B0133
:100A900041F28830814215D897FAA7F0B0FA80F079
:100AA00040F04000B4EB501F01D130680CE097FAE1
:100AB000A7F0B0FA80F040F04000B7EB501F02D131
:100AC000306A01E083E0706A97FAA7F1B1FA81F128
:100AD00001F01F0104FA01F21042D5D1B9F1000F63
:100AE00003D0F06920F08050F061E86980B371684C
:100AF000C1F38101022977D04FF080714F000228A5
:100B0000504609D091FAA1F1B1FA81F148F82100DB
:100B1000FFF73EFC05465DE0894691FAA1F1B1FA86
:100B200081F1C24648F82100FFF732FC804605E01B
:100B3000FFF72EFCA0EB0800022848D897FAA7F090
:100B4000B0FA80F040F02000400902D0306801E0A7
:100B500066E0706A97FAA7F1B1FA81F101F01F011E
:100B600004FA01F10842E3D1D5E90810084371689D
:100B700021F474110843706099FAA9F0B0FA80F07A
:100B80004AF82040FFF704FC054604E0FFF700FCAC
:100B9000401B02281BD897FAA7F0B0FA80F040F06B
:100BA0002000400901D0306800E0706A97FAA7F190
:100BB000B1FA81F101F01F0104FA01F10842E5D018
:100BC0002EE000BFFFF7E4FB401B022802D9032000
:100BD000BDE8F88F97FAA7F0B0FA80F040F0200057
:100BE000400902D0306801E00BE0706A97FAA7F183
:100BF000B1FA81F101F01F0104FA01F10842E1D1DB
:100C00000EE00128E4D070682A6A00F48031914235
:100C100004D1696A00F47010884201D00120D7E73E
:100C20000020D5E710B5401EB0F1807F01D3012030
:100C300010BD4FF0E02460610F21601700F051F803
:100C40000020A06107202061002010BDFEE7FEE724
:100C50007047012000F038F9FBE710B5FFF79EFB65
:100C600001F02AFC012803D0BDE8104001F066B86D
:100C700010BD30B58FB028216846FFF75BFB14210B
:100C80000AA8FFF757FB01204FF4A02100248DE8AC
:100C90001300049002250004CDE907504FF4E01042
:100CA00009906846FFF7DAFC0F20CDE90A056802D3
:100CB000CDE90C4002210AA80E94FFF7F5FB0FB016
:100CC00030BD00000548016841F47001016003492E
:100CD0004FF00060803908607047000088ED00E048
:100CE000FEE70907090E002804DB00F1E02080F888
:100CF0000014704700F00F0000F1E02080F8141D90
:100D0000704702E008C8121F08C1002AFAD17047D4
:100D10007047002001E001C1121F002AFBD170477B
:100D20008EB0FFF743FBFFF7A4FF4B48416941F446
:100D300080014161416901F480010091416941F400
:100D400000114161454C2168454A11432160A16869
:100D5000444A1143A160C16941F00201C1614249A5
:100D600041F61F400860091D44F61F6008603E48B8
:100D70002838016841F001010160012000F0F4FF12
:100D80003A4D6861012000F0EFFFA861012000F0FA
:100D9000EBFFE861012000F0E7FF2862012000F08E
:100DA000E3FF68626A694FF4004102B9A161AA6970
:100DB00002B9A161EA6902B9A1612A6A02B9A16115
:100DC00000B9A16100220121052000F0D8FFA8622E
:100DD0001C22274903A8FFF794FA002103A800F07A
:100DE0007FF828610AA86424CDE90040002380220E
:100DF00020A1224801F008FB0BA8CDE90040002308
:100E000080221FA1204801F0FFFA0CA8CDE9004084
:100E1000002380221DA11F4801F0F6FA1E4800940D
:100E200000F1A801CDE901100123C8221BA11E4831
:100E300001F017FBA86018480094543000F55D716C
:100E4000CDE901100123C82218A11B4801F009FBBC
:100E5000E86000F040F8FEE7001002400010004893
:100E6000000055550000FFFF28040040000000204E
:100E7000002800085461736B20310000ED16000853
:100E80005461736B20320000991700085461736B32
:100E900020330000551800089C0000205374617432
:100EA00069635461736B34000119000853746174F1
:100EB00069635461736B3500CD1900080146002049
:100EC000842900D0C81C704710B500B9012000F07B
:100ED000D9FB002010BD10B500F04AFE002010BD67
:100EE0007FB50D4604464169B0F9080081B1A1699A
:100EF00071B1FFF7E3FFD4E905128DE80700D4E9EB
:100F000000102B46226901F0ACFA039004B070BDCA
:100F1000FFF7D4FF03A9CDE90001208A2B4682B256
:100F2000D4E9001001F070FA012801D00020EDE7AB
:100F30000398EBE72DE9F041184C0F46054666692A
:100F40002068001D00F0DAFA38B9206890F82C10FB
:100F500001208840A1698143A161681C07D137B194
:100F60002168BDE8F0410E48091D00F00BBB206868
:100F70003544B5424560216805D2A068BDE8F0411E
:100F8000091D00F0E7BA6068091D00F0E3FA206B64
:100F9000854200D22563BDE8F08100003C000020BE
:100FA000B40A00202DE9F041054600F0F7FA2E4C76
:100FB0002069401C206120682C4F10B1E06940B3CB
:100FC0002DE025602069012829D1002606EB860046
:100FD00007EB800000F0B0FA761C072EF6D323480A
:100FE0008C3000F0A9FA2148A03000F0A5FA1F4883
:100FF000B43000F0A1FA1D48C83000F09DFA1B483B
:10100000DC3000F099FA19488C3060601430A06030
:1010100005E02068E96AC06A884200D82560E06A75
:10102000401CE062E96A0120A26988401043A06187
:1010300001EB810007EB8000291D00F0A3FA00F00E
:10104000CDFAE06900280CD02068E96AC06A8842BD
:1010500007D207494FF080500860BFF34F8FBFF3AE
:101060006F8FBDE8F08100003C000020D80900200F
:1010700004ED00E030B4026C0B46002A0BD0C168CE
:101080001144C1604468A14201D30168C16030BC11
:101090001846FFF736B930BC70472DE9F041856B33
:1010A000174604460026026C82B1C7B1E068FFF71C
:1010B00028F9E168206C091AE1602268914202D2A5
:1010C0006168081AE060022F16D017E02068A8B9FE
:1010D000606801F063FA0646002060600EE0A068D8
:1010E000FFF70FF9216CA0680844A060616888428E
:1010F00004D32068A06001E005B16D1E6D1CA563DE
:101100003046BDE8F08110B5044690F8510058B162
:1011100001280CD002280FD0502080F31188BFF393
:101120004F8FBFF36F8FFEE7206B00F06BFA204606
:10113000BDE8104000F066BA10BD000010484FF442
:101140004061420706D0C01D0D4920F00700411A3A
:10115000C1F540610B4A00230144C2E9000308398C
:10116000103A21F0070111604B600B600B1AC0E9C7
:10117000001393604FF000405360D0607047000050
:10118000C80A002088000020144E154CA6F1C8079C
:101190004FF08058DFF84C9012E000BF00F0FEF9ED
:1011A000F068C568281D00F0A9F92069401E20617B
:1011B000E068401EE06000F011FA2846FFF7A3FF48
:1011C000E0680028EAD138680128F9D9C9F8008018
:1011D000BFF34F8FBFF36F8FF2E70000A00A00202C
:1011E0003C00002004ED00E0002807D00021416011
:1011F00001600B460A46C16000F02ABE70470346F4
:10120000009829B10260C0E90F31012100F0DCBD76
:101210000060F8E72DE9F0479A46DDE90984814648
:101220006FF00303206B03EB82021044089D20F053
:101230000706700707D0502080F31188BFF34F8F47
:10124000BFF36F8FFEE723180A5C83F834200A5C33
:1012500012B1401C1028F6D3002784F84370072DE4
:1012600000D30625E562C4E91157201D00F06FF98F
:1012700004F1180000F06BF92461C5F10700646205
:10128000A061E76484F8507052464946304600F049
:101290000FF92060B8F1000F01D0C8F80040BDE898
:1012A000F087000030B5114900E011460A6882421B
:1012B000FBD34B685C18844203D1406818444860F3
:1012C000084643681C18944209D1084C103C246815
:1012D000A24209D052681A4442600A681268026049
:1012E000814200D0086030BD0460F9E7880000202A
:1012F00010B5044600F052F9A06B28B15FF000046D
:1013000000F06CF9204610BD0124F9E70648416859
:10131000096829B14168C968C968496801637047AB
:101320004FF0FF31FAE700003C0000200848406819
:10133000401C4FF0500080F3118804D0BFF34F8F52
:10134000BFF36F8FFEE7BFF34F8FBFF36F8FFEE7E3
:10135000900000202DE9F041044600F01FF994F9B7
:10136000455004F1240609E0606A48B1304601F0B6
:10137000ABF908B100F0B4F96D1E6DB2002DF3DCCD
:101380004FF0FF3684F8456000F028F900F006F9C8
:1013900094F9445004F1100709E0206948B1384637
:1013A00001F092F908B100F09BF96D1E6DB2002DAD
:1013B000F3DC84F84460BDE8F04100F00FB90000B0
:1013C0002DE9F0410546002700F008FC314E306859
:1013D00008B9FFF7B3FEF06805424BD1C5B3083535
:1013E00068070ED005F00700C0F108000544680743
:1013F00007D0502080F31188BFF34F8FBFF36F8F5A
:10140000FEE72DB37068854234D82248103001467B
:101410000C6801E020460C466168A94202D22168AE
:101420000029F7D131688C4224D007682168016017
:1014300060680837411B10290FD96019420708D08E
:10144000502080F31188BFF34F8FBFF36F8FFEE7FB
:1014500010E041606560FFF725FF61687068401A21
:101460007060B268904200D2B060F0680143002022
:10147000C4E9000101F062F9780707D0502080F339
:101480001188BFF34F8FBFF36F8FFEE73846BDE87B
:10149000F0810000780000200449086818B108684D
:1014A000826C521C82640868704700003C00002077
:1014B00010B5031F4FF080741C601B1F21F0010149
:1014C0001960191F044B0B6014390A60091F6FF073
:1014D000020244380A6010BD2D130008064A136842
:1014E0001BB2834205DD106800B2884201DA012098
:1014F000704700207047000024040040D0E901320A
:1015000001699A60D0E901235A604A68824201D198
:1015100082684A60002202610868401E086008680C
:1015200070470000034B036003F154000860802003
:10153000106070478407002000F108014FF0FF326F
:10154000C0E90112C1600161002101607047002102
:101550000161704730B50B685A1C02D000F10802D7
:1015600002E0026904E02246546825689D42FAD9E7
:1015700053684B6099608A60516008610168491C3A
:10158000016030BD42684A6093688B60936859601F
:10159000916008610168491C01607047502080F328
:1015A0001188BFF34F8FBFF36F8F0A494868401C03
:1015B000486001280CD10848006810F0FF0F07D0E0
:1015C000502080F31188BFF34F8FBFF36F8FFEE77A
:1015D000704700009000002004ED00E008494868D2
:1015E00028B1401E486001D180F311887047502017
:1015F00080F31188BFF34F8FBFF36F8FFEE70000BA
:101600009000002070B5002827D0144DA0F10804E8
:101610006168E868014207D1502080F31188BFF368
:101620004F8FBFF36F8FFEE722683AB1502080F3EF
:101630001188BFF34F8FBFF36F8FFEE78143616067
:1016400000F0CCFA60686968084468602046FFF7DB
:1016500029FEBDE8704001F071B870BD780000202F
:101660004FF0E02000210161816105494FF47A7259
:101670000968B1FBF2F1491E416107210161704720
:101680003800002010B5020014D00F48806B38B12C
:10169000502080F31188BFF34F8FBFF36F8FFEE7A9
:1016A00000F09CFA00211046FFF744FC01F046F8D8
:1016B000002807D105494FF080500860BFF34F8FD5
:1016C000BFF36F8F10BD00003C00002004ED00E070
:1016D00002498A6A02604969416070473C00002003
:1016E00001490120486270473C00002008B5284DA0
:1016F000284C01260120FFF7E7FB8DF8006000234E
:101700001A466946A06A00F0A3FB00226946A06A57
:1017100000F04EFC9DF800000128F6D12821606AF7
:1017200000F07CFD012808D04FF40050A861002291
:101730006946A06A00F0D6FCDCE72821606900F069
:101740006DFD012809D04FF48040A86100231A469E
:101750001946606A00F07CFBE9E742F210714FF431
:101760007A70FFF7BBFE2178884207D0207010B155
:101770004FF4807001E04FF08070A8611420FFF7F3
:10178000A3FB00231A461946606900F061FBDDE700
:10179000001000480000002008B52C4D2C4C0226FB
:1017A0000120FFF791FB8DF8006000231A4669467F
:1017B000A06A00F04DFB00226946A06A00F0F8FB29
:1017C0009DF800000228F6D12821606900F026FD6E
:1017D000012808D04FF40050A86100226946A06A91
:1017E00000F080FCDCE72821A06900F017FD01284B
:1017F00009D04FF48040A86100231A461946606959
:1018000000F026FBE9E74FF4FA518810FFF766FE77
:10181000074644F2506142F6E060FFF75FFE38444D
:101820006178C0B2884207D0607010B14FF4007088
:1018300001E04FF00070A8611420FFF745FB002382
:101840001A461946A06900F003FBD5E700100048CE
:101850000000002008B5284D284C03260120FFF782
:1018600033FB8DF8006000231A466946A06A00F039
:10187000EFFA00226946A06A00F09AFB9DF800008A
:101880000328F6D12821A06900F0C8FC012808D05F
:101890004FF40050A86100226946A06A00F022FCC3
:1018A000DCE72821E06900F0B9FC012809D04FF4F9
:1018B0008040A86100231A461946A06900F0C8FAC2
:1018C000E9E743F6982141F28830FFF707FEA17857
:1018D000884207D0A07010B14FF4806001E04FF053
:1018E0008060A8611420FFF7EFFA00231A4619461A
:1018F000E06900F0ADFADDE70010004800000020CC
:1019000008B5304F304C04250120FFF7DDFA8DF883
:10191000005000231A466946A06A00F099FA002296
:101920006946A06A00F044FB9DF800000428F6D147
:101930002821E06900F072FC012808D04FF4005023
:10194000B86100226946A06A00F0CCFBDCE72821E0
:10195000206A00F063FC012809D04FF48040B86190
:1019600000231A461946E06900F072FAE9E740F6EA
:10197000AC51C820FFF7B2FD064642F6302142F2D4
:10198000F030FFF7ABFD064444F6382144F25060D6
:10199000FFF7A4FD3044E178C0B2884207D0E07080
:1019A00010B14FF4006001E04FF00060B861142006
:1019B000FFF78AFA00231A461946206A00F048FA0F
:1019C000CEE70000001000480000002008B5304FAE
:1019D000304C05250120FFF777FA8DF800500023E1
:1019E0001A466946A06A00F033FA00226946A06AE6
:1019F00000F0DEFA9DF800000528F6D12821206AC3
:101A000000F00CFC012808D04FF40050B86100220F
:101A10006946A06A00F066FBDCE72821606A00F0F6
:101A2000FDFB012809D04FF48040B86100231A461D
:101A30001946206A00F00CFAE9E741F288310020EB
:101A4000FFF74CFD064642F6186141F6A470FFF719
:101A500045FD064444F6206144F25060FFF73EFD28
:101A600030442179C0B2884207D0207110B14FF4C0
:101A7000805001E04FF08050B8611420FFF724FA45
:101A800000231A461946606A00F0E2F9CEE700002A
:101A9000001000480000002010B50C4650B1094964
:101AA00009681831FFF756FD2046BDE810400121B6
:101AB000FFF740BA502080F31188BFF34F8FBFF378
:101AC0006F8FFEE73C00002070B504004BD0A26C85
:101AD000A2B1606C884200D30146E06A884242D0DD
:101AE000012A40D1204D2A6894420FD1502080F322
:101AF0001188BFF34F8FBFF36F8FFEE7502080F345
:101B00001188BFF34F8FBFF36F8FFEE7E162A269C9
:101B1000002A02DBC1F10701A161144E00EB800035
:101B2000616906EB800081421DD1201DFFF7E6FCB4
:101B3000012150B9E06A00EB800256F8222022B958
:101B4000AA6901FA00F08243AA61E06AAA698140A9
:101B50001143A96100EB800006EB8000211DBDE868
:101B60007040FFF70FBD70BD3C000020D809002079
:101B700010B586B00024039405AA04A903A8049410
:101B8000FFF7D0FCDDE903010094CDE9011000234B
:101B90000EA11048059A00F064FC0F490028486324
:101BA00011D0502080F31188BFF34F8FBFF36F8F98
:101BB0004FF0FF3008630120C8614C6106B0BDE8FA
:101BC000104000F041B806B010BD000049444C453B
:101BD00000000000891100083C0000200248816BD1
:101BE000491C8163704700003C0000201448816B51
:101BF00011B1012141627047002141628169B1FA4E
:101C000081F1C1F11F0101EB81020E4951F822302F
:101C10006BB101EB820101F108034A6852684A6026
:101C20009A4201D152684A60D168016070475020E1
:101C300080F31188BFF34F8FBFF36F8FFEE7000073
:101C40003C000020D80900201CB537480168374AFD
:101C5000914207D1502080F31188BFF34F8FBFF31B
:101C60006F8FFEE700683149491E884207D1502036
:101C700080F31188BFF34F8FBFF36F8FFEE72C49BE
:101C800008780190FF20087008788DF800009DF812
:101C900000009DF8002000F0F000904207D0502096
:101CA00080F31188BFF34F8FBFF36F8FFEE79DF86E
:101CB0000000204B00F0500018700720986005E0ED
:101CC0009DF8002052008DF80020401E9DF8002055
:101CD0001206F5D49860032807D0502080F31188AD
:101CE000BFF34F8FBFF36F8FFEE74FF440709860E4
:101CF000019808700C482030016841F470010160BF
:101D0000016841F070410160FFF7AAFC00205860B3
:101D1000FEF768FA0848016841F040410160FEF7AB
:101D20004DFA00201CBD000000ED00E071C20F4123
:101D300000E400E09000002034EF00E010B55020F7
:101D400080F31188BFF34F8FBFF36F8F00F0C2FB9A
:101D500018B104494FF080500860002080F31188CA
:101D600010BD000004ED00E010B502460021012086
:101D700000F005F80446FFF737FA204610BDF8B525
:101D800017460E46050014D0DEB105FB06F04830BC
:101D9000FFF716FB04000AD0002084F8460004F187
:101DA00048023B46314628460094FFF728FA204671
:101DB000F8BD502080F31188BFF34F8FBFF36F8FB2
:101DC000FEE70020E3E7000070B50D46040025D0D3
:101DD000FFF7E4FBD4E90F20216802FB00116160EA
:101DE0000021A1632168A1600A46D4E90F01401EC9
:101DF00000FB0121E16021464FF0FF3001F8440F64
:101E0000487004F110008DB1FFF796FB04F1240037
:101E1000FFF792FBFFF7E2FB012070BD502080F33B
:101E20001188BFF34F8FBFF36F8FFEE72169002941
:101E3000F0D000F049FC0028ECD004494FF080506D
:101E40000860BFF34F8FBFF36F8FE3E704ED00E04F
:101E50002DE9FF4782B01D468A464FF00008040076
:101E600003D0BAF1000F08D011E0502080F31188A0
:101E7000BFF34F8FBFF36F8FFEE7206C38B1502058
:101E800080F31188BFF34F8FBFF36F8FFEE7022DF2
:101E90000AD1E06B012807D0502080F31188BFF3EE
:101EA0004F8FBFF36F8FFEE700F006FB3F4F4FF001
:101EB00000094FF0805648B9049838B1502080F39B
:101EC0001188BFF34F8FBFF36F8FFEE7FFF766FBFD
:101ED000A06BE16B884207D3022D05D00498D0B1E6
:101EE000B8F1000F1AD01EE02A4651462046FFF7EF
:101EF000D4F8616A19B104F1240000F0E5FB20B1C7
:101F00003E60BFF34F8FBFF36F8FFFF767FB01207A
:101F100006B0BDE8F087FFF761FB22E06846FFF7F7
:101F2000D7FB4FF00108FFF759FBFFF757FEFFF70C
:101F300035FB94F94400401C01D184F8449094F995
:101F40004500401C01D184F84590FFF747FB04A9E8
:101F5000684600F01FFA30B12046FFF7FBF900F0A9
:101F6000EDFB0020D4E7FFF719FBA06BE16B884283
:101F700013D1FFF733FB04F110000499FFF78CFD38
:101F80002046FFF7E7F900F0D9FB00289ED13E601C
:101F9000BFF34F8FBFF36F8F98E7FFF71FFB20460C
:101FA000FFF7D8F900F0CAFB90E7000004ED00E06D
:101FB0002DE9F743002582B08946040003D0B9F12A
:101FC000000F08D011E0502080F31188BFF34F8F2D
:101FD000BFF36F8FFEE7206C38B1502080F311887B
:101FE000BFF34F8FBFF36F8FFEE700F065FA3C4FF2
:101FF0004FF000084FF0805648B9049838B150208F
:1020000080F31188BFF34F8FBFF36F8FFEE7FFF7A9
:10201000C5FAA06BB8B149462046E568FFF72AF833
:10202000E560606A48B104F1240000F04DFB20B186
:102030003E60BFF34F8FBFF36F8FFFF7CFFA0120E2
:1020400005B0BDE8F083049808B11DB106E0FFF7C4
:10205000C5FA27E06846FFF73BFB0125FFF7BEFA0C
:10206000FFF7BCFDFFF79AFA94F94400401C01D138
:1020700084F8448094F94500401C01D184F84580DF
:10208000FFF7ACFA04A9684600F084F9002820465E
:102090000AD0FFF75FF900F051FB2046FFF728F95F
:1020A0000028B4D00020CBE7FFF722F988B104F173
:1020B00024000499FFF7F0FC2046FFF74BF900F0ED
:1020C0003DFB0028A3D13E60BFF34F8FBFF36F8F5E
:1020D0009DE72046FFF73EF900F030FB97E7000050
:1020E00004ED00E02DE9F747002683B08A4604009E
:1020F00003D0BAF1000F08D011E0502080F311880E
:10210000BFF34F8FBFF36F8FFEE7206C38B15020C5
:1021100080F31188BFF34F8FBFF36F8FFEE700F09E
:10212000CBF9DFF8F4804FF000094FF0805748B941
:10213000059838B1502080F31188BFF34F8FBFF35B
:102140006F8FFEE7FFF72AFAA56BC5B1514620460F
:10215000FEF790FF6D1EA563206950B104F11000D9
:1021600000F0B2FA28B1C8F80070BFF34F8FBFF388
:102170006F8FFFF733FA012006B0BDE8F0870598AE
:1021800008B11EB106E0FFF729FA27E06846FFF71D
:102190009FFA0126FFF722FAFFF720FDFFF7FEF96D
:1021A00094F94400401C01D184F8449094F945000E
:1021B000401C01D184F84590FFF710FA05A9684644
:1021C00000F0E8F8002820460AD0FFF7C3F800F036
:1021D000B5FA2046FFF78CF80028B3D00020CBE7F3
:1021E000FFF786F890B104F124000599FFF754FC3D
:1021F0002046FFF7AFF800F0A1FA0028A2D1C8F8F6
:102200000070BFF34F8FBFF36F8F9BE72046FFF740
:10221000A1F800F093FA95E704ED00E02DE9F3430F
:10222000002683B00400354609D0206C78B15020D8
:1022300080F31188BFF34F8FBFF36F8FFEE75020FD
:1022400080F31188BFF34F8FBFF36F8FFEE700F06D
:1022500033F9DFF83C814FF000094FF0805748B95F
:10226000049838B1502080F31188BFF34F8FBFF32B
:102270006F8FFEE7FFF792F9A06BC8B1401EA06315
:10228000206810B9FFF708F96060206950B104F1C7
:10229000100000F019FA28B1C8F80070BFF34F8F92
:1022A000BFF36F8FFFF79AF9012005B0BDE8F08307
:1022B000049808B166B10FE03DB1502080F3118859
:1022C000BFF34F8FBFF36F8FFEE7FFF787F95DE036
:1022D0006846FFF7FDF90126FFF780F9FFF77EFC5E
:1022E000FFF75CF994F94400401C01D184F8449054
:1022F00094F94500401C01D184F84590FFF76EF930
:1023000004A9684600F046F80028204612D0FFF7DE
:1023100021F800F013FA2046FEF7EAFF0028A9D0C2
:102320009DB3FFF73BF9606A50B3206B0068C0F1C2
:10233000070126E0FEF7DCFFE0B1206838B9FFF7BF
:102340002DF9606800F076F90546FFF747F904F1CA
:1023500024000499FFF7A0FB2046FEF7FBFF00F0E6
:10236000EDF9002886D1C8F80070BFF34F8FBFF396
:102370006F8F7FE72046FEF7EDFF00F0DFF979E78A
:1023800000216068FFF7A0FB9FE7FFE700208CE7D4
:1023900004ED00E02DE9F0410C46050011D0C4B178
:1023A000FFF7FCF8174B5A696E682068911B471CB1
:1023B00017D02F689B6A9F4219D0964217D80124E4
:1023C00010E0502080F31188BFF34F8FBFF36F8F61
:1023D000FEE7502080F31188BFF34F8FBFF36F8F5C
:1023E000FEE70024FFF7FAF82046BDE8F0818842B6
:1023F00005D9401A20602846FFF76AF9F1E7002066
:102400002060DCE73C0000202DE9FF5F8346DDE92A
:102410000E87994616468A469000FEF7D1FF0500C2
:102420001CD05420FEF7CCFF040014D000202563FC
:1024300084F85100CDE90240CDE900874B46324691
:1024400051465846FEF7E6FE2046FEF7ABFD01205A
:1024500004B0BDE8F09F2846FFF7D4F84FF0FF30F6
:10246000F6E7F0B585B0DDE90B640A9DA6B1DCB1F5
:10247000542700972663022684F85160002604AF93
:10248000CDE90246CDE90057FEF7C4FE2046FEF72F
:1024900089FD049805B0F0BD502080F31188BFF38A
:1024A0004F8FBFF36F8FFEE7502080F31188BFF38B
:1024B0004F8FBFF36F8FFEE70548C16919B1806B7D
:1024C00018B10020704701207047022070470000BB
:1024D0003C0000202DE9F0412E4C0027A06B40B1BC
:1024E000206A401C2062606A00B101273846BDE8BE
:1024F000F0816669761C666113D16068006838B146
:10250000502080F31188BFF34F8FBFF36F8FFEE72A
:102510006068A1686160A060A06A401CA062FEF7CC
:10252000F5FE206BDFF87080864209D36068006892
:1025300080B16068C068C568686886420DD2206353
:102540002068C06A00EB800158F821000128CAD930
:102550000127C8E74FF0FF30F1E7281DFEF7CEFF57
:10256000A86A18B105F11800FEF7C8FFE86A012152
:10257000A26981401143A16100EB800108EB810059
:10258000291DFEF7FFFFE86A2168C96A8842CDD39A
:102590000127CBE73C000020D809002070B50400DB
:1025A0004FF0000140D0214D2868844207D05020D0
:1025B00080F31188BFF34F8FBFF36F8FFEE7A06CDE
:1025C00038B1401EA064636CE26A9A422CD040B1DC
:1025D0002AE0502080F31188BFF34F8FBFF36F8F35
:1025E000FEE7201DFEF78AFF114A012150B9E06A7B
:1025F00000EB800352F8233023B9AB6901FA00F0F5
:102600008343AB61606CE062C0F10700A061E06AE7
:10261000AB6981401943A96100EB800002EB8000A7
:10262000211DFEF7AFFF0121084670BD3C000020D0
:10263000D809002070B504004FF0000038D0204DBC
:10264000E16A2A68D26A914233D2A069002804DB89
:102650002868C06AC0F10700A0611A4E01EB810131
:10266000606906EB810188421ED1201DFEF746FFFE
:10267000012150B9E06A00EB800256F8222022B90D
:10268000AA6901FA00F08243AA612868C06AE06280
:10269000AA6981401143A96100EB800006EB80002C
:1026A000211DFEF76FFF02E02868C06AE06201208A
:1026B00070BD616C2A68D26A9142F8D370BD000087
:1026C0003C000020D80900202DE9F041C068C46812
:1026D000ACB104F118000746FEF710FF154DA86BCA
:1026E0000126A0B139461448FEF74CFFE06A29687C
:1026F000C96A88421CD901206E62BDE8F081502071
:1027000080F31188BFF34F8FBFF36F8FFEE7201D5B
:10271000FEF7F4FEE16AAA6906FA01F01043A86127
:1027200001EB81000449B43901EB8000211DDBE796
:102730000020E2E73C0000208C0A00202DE9F04751
:102740002C4D00242746A86B38B1FEF727FFA86B55
:10275000401EA863A86B40B146E0502080F311886A
:10276000BFF34F8FBFF36F8FFEE72969224E012021
:10277000D1B3A6F1B40980463068E8B1F068C46806
:1027800004F11800FEF7BAFE201DFEF7B7FEE06A5E
:10279000AA6908FA00F11143A96100EB800109EB75
:1027A0008100211DFEF7EEFEE06A2968C96A8842B1
:1027B000E2D3C5F82480DFE70CB1FEF7A7FD2C6A51
:1027C00044B14646FFF786FE00B16E62641EF9D141
:1027D00000202862686A38B1084901273807086074
:1027E000BFF34F8FBFF36F8FFEF7F8FE3846BDE89B
:1027F000F08700003C0000208C0A002004ED00E07F
:102800004C280008530C00080000000000000000E5
:10281000800000000000000000000000020304052A
:10282000060708090A0B0C0D0E0F10100102030415
:1028300005060708090A0B0C0D0E0F10000000001A
:1028400000000000010203040607080964656661D0
:10285000756C745461736B007828000800000020C8
:102860009C000000020D0008142900089C000020B4
:102870002C1A0000120D00080000000000000000EB
:102880000000000000000000000000000000000048
:102890000000000000000000000000000000000038
:1028A0000000000001000000100000000000000017
:1028B00000127A000000000000000000000000008C
:1028C0000000000000000000000000000000000008
:1028D00000000000000000000000000000000000F8
:1028E00000000000000000000000000000000000E8
:1028F00000000000000000000000000000000000D8
:10290000000000000000000000000000AAAAAAAA1F
:0429100000000000C3
:040000050800018965
:00000001FF
